{
	"contracts/Gravity.sol": {
		"GravatarRegistry": {
			"abi": [
				{
					"anonymous": false,
					"inputs": [
						{
							"indexed": false,
							"internalType": "uint256",
							"name": "id",
							"type": "uint256"
						},
						{
							"indexed": false,
							"internalType": "address",
							"name": "owner",
							"type": "address"
						},
						{
							"indexed": false,
							"internalType": "string",
							"name": "displayName",
							"type": "string"
						},
						{
							"indexed": false,
							"internalType": "string",
							"name": "imageUrl",
							"type": "string"
						}
					],
					"name": "NewGravatar",
					"type": "event"
				},
				{
					"anonymous": false,
					"inputs": [
						{
							"indexed": false,
							"internalType": "uint256",
							"name": "id",
							"type": "uint256"
						},
						{
							"indexed": false,
							"internalType": "address",
							"name": "owner",
							"type": "address"
						},
						{
							"indexed": false,
							"internalType": "string",
							"name": "displayName",
							"type": "string"
						},
						{
							"indexed": false,
							"internalType": "string",
							"name": "imageUrl",
							"type": "string"
						}
					],
					"name": "UpdatedGravatar",
					"type": "event"
				},
				{
					"inputs": [
						{
							"internalType": "string",
							"name": "_displayName",
							"type": "string"
						},
						{
							"internalType": "string",
							"name": "_imageUrl",
							"type": "string"
						}
					],
					"name": "createGravatar",
					"outputs": [],
					"stateMutability": "nonpayable",
					"type": "function"
				},
				{
					"inputs": [
						{
							"internalType": "address",
							"name": "owner",
							"type": "address"
						}
					],
					"name": "getGravatar",
					"outputs": [
						{
							"internalType": "string",
							"name": "",
							"type": "string"
						},
						{
							"internalType": "string",
							"name": "",
							"type": "string"
						}
					],
					"stateMutability": "view",
					"type": "function"
				},
				{
					"inputs": [
						{
							"internalType": "uint256",
							"name": "",
							"type": "uint256"
						}
					],
					"name": "gravatarToOwner",
					"outputs": [
						{
							"internalType": "address",
							"name": "",
							"type": "address"
						}
					],
					"stateMutability": "view",
					"type": "function"
				},
				{
					"inputs": [
						{
							"internalType": "uint256",
							"name": "",
							"type": "uint256"
						}
					],
					"name": "gravatars",
					"outputs": [
						{
							"internalType": "address",
							"name": "owner",
							"type": "address"
						},
						{
							"internalType": "string",
							"name": "displayName",
							"type": "string"
						},
						{
							"internalType": "string",
							"name": "imageUrl",
							"type": "string"
						}
					],
					"stateMutability": "view",
					"type": "function"
				},
				{
					"inputs": [
						{
							"internalType": "address",
							"name": "",
							"type": "address"
						}
					],
					"name": "ownerToGravatar",
					"outputs": [
						{
							"internalType": "uint256",
							"name": "",
							"type": "uint256"
						}
					],
					"stateMutability": "view",
					"type": "function"
				},
				{
					"inputs": [],
					"name": "setMythicalGravatar",
					"outputs": [],
					"stateMutability": "nonpayable",
					"type": "function"
				},
				{
					"inputs": [
						{
							"internalType": "string",
							"name": "_imageUrl",
							"type": "string"
						}
					],
					"name": "updateGravatarImage",
					"outputs": [],
					"stateMutability": "nonpayable",
					"type": "function"
				},
				{
					"inputs": [
						{
							"internalType": "string",
							"name": "_displayName",
							"type": "string"
						}
					],
					"name": "updateGravatarName",
					"outputs": [],
					"stateMutability": "nonpayable",
					"type": "function"
				}
			],
			"devdoc": {
				"kind": "dev",
				"methods": {},
				"version": 1
			},
			"evm": {
				"assembly": "    /* \"contracts/Gravity.sol\":65:2444  contract GravatarRegistry {... */\n  mstore(0x40, 0x80)\n  callvalue\n  dup1\n  iszero\n  tag_1\n  jumpi\n  0x00\n  dup1\n  revert\ntag_1:\n  pop\n  dataSize(sub_0)\n  dup1\n  dataOffset(sub_0)\n  0x00\n  codecopy\n  0x00\n  return\nstop\n\nsub_0: assembly {\n        /* \"contracts/Gravity.sol\":65:2444  contract GravatarRegistry {... */\n      mstore(0x40, 0x80)\n      callvalue\n      dup1\n      iszero\n      tag_1\n      jumpi\n      0x00\n      dup1\n      revert\n    tag_1:\n      pop\n      jumpi(tag_2, lt(calldatasize, 0x04))\n      shr(0xe0, calldataload(0x00))\n      dup1\n      0xa5ac3634\n      gt\n      tag_11\n      jumpi\n      dup1\n      0xa5ac3634\n      eq\n      tag_7\n      jumpi\n      dup1\n      0xb18588fb\n      eq\n      tag_8\n      jumpi\n      dup1\n      0xcdb3344a\n      eq\n      tag_9\n      jumpi\n      dup1\n      0xd5ce24ed\n      eq\n      tag_10\n      jumpi\n      jump(tag_2)\n    tag_11:\n      dup1\n      0x81d6e5\n      eq\n      tag_3\n      jumpi\n      dup1\n      0x1d4f2c6d\n      eq\n      tag_4\n      jumpi\n      dup1\n      0x359c1f72\n      eq\n      tag_5\n      jumpi\n      dup1\n      0x88d0d391\n      eq\n      tag_6\n      jumpi\n    tag_2:\n      0x00\n      dup1\n      revert\n        /* \"contracts/Gravity.sol\":1685:2045  function updateGravatarImage(string memory _imageUrl) public {... */\n    tag_3:\n      tag_12\n      0x04\n      dup1\n      calldatasize\n      sub\n      dup2\n      add\n      swap1\n      tag_13\n      swap2\n      swap1\n      tag_14\n      jump\t// in\n    tag_13:\n      tag_15\n      jump\t// in\n    tag_12:\n      stop\n        /* \"contracts/Gravity.sol\":2272:2441  function setMythicalGravatar() public {... */\n    tag_4:\n      tag_16\n      tag_17\n      jump\t// in\n    tag_16:\n      stop\n        /* \"contracts/Gravity.sol\":1108:1306  function getGravatar(address owner) public view returns (string memory , string memory) {... */\n    tag_5:\n      tag_18\n      0x04\n      dup1\n      calldatasize\n      sub\n      dup2\n      add\n      swap1\n      tag_19\n      swap2\n      swap1\n      tag_20\n      jump\t// in\n    tag_19:\n      tag_21\n      jump\t// in\n    tag_18:\n      mload(0x40)\n      tag_22\n      swap3\n      swap2\n      swap1\n      tag_23\n      jump\t// in\n    tag_22:\n      mload(0x40)\n      dup1\n      swap2\n      sub\n      swap1\n      return\n        /* \"contracts/Gravity.sol\":494:542  mapping (uint => address) public gravatarToOwner */\n    tag_6:\n      tag_24\n      0x04\n      dup1\n      calldatasize\n      sub\n      dup2\n      add\n      swap1\n      tag_25\n      swap2\n      swap1\n      tag_26\n      jump\t// in\n    tag_25:\n      tag_27\n      jump\t// in\n    tag_24:\n      mload(0x40)\n      tag_28\n      swap2\n      swap1\n      tag_29\n      jump\t// in\n    tag_28:\n      mload(0x40)\n      dup1\n      swap2\n      sub\n      swap1\n      return\n        /* \"contracts/Gravity.sol\":547:595  mapping (address => uint) public ownerToGravatar */\n    tag_7:\n      tag_30\n      0x04\n      dup1\n      calldatasize\n      sub\n      dup2\n      add\n      swap1\n      tag_31\n      swap2\n      swap1\n      tag_20\n      jump\t// in\n    tag_31:\n      tag_32\n      jump\t// in\n    tag_30:\n      mload(0x40)\n      tag_33\n      swap2\n      swap1\n      tag_34\n      jump\t// in\n    tag_33:\n      mload(0x40)\n      dup1\n      swap2\n      sub\n      swap1\n      return\n        /* \"contracts/Gravity.sol\":1312:1679  function updateGravatarName(string memory _displayName) public {... */\n    tag_8:\n      tag_35\n      0x04\n      dup1\n      calldatasize\n      sub\n      dup2\n      add\n      swap1\n      tag_36\n      swap2\n      swap1\n      tag_14\n      jump\t// in\n    tag_36:\n      tag_37\n      jump\t// in\n    tag_35:\n      stop\n        /* \"contracts/Gravity.sol\":602:1102  function createGravatar(string memory _displayName, string memory _imageUrl) public {... */\n    tag_9:\n      tag_38\n      0x04\n      dup1\n      calldatasize\n      sub\n      dup2\n      add\n      swap1\n      tag_39\n      swap2\n      swap1\n      tag_40\n      jump\t// in\n    tag_39:\n      tag_41\n      jump\t// in\n    tag_38:\n      stop\n        /* \"contracts/Gravity.sol\":460:487  Gravatar[] public gravatars */\n    tag_10:\n      tag_42\n      0x04\n      dup1\n      calldatasize\n      sub\n      dup2\n      add\n      swap1\n      tag_43\n      swap2\n      swap1\n      tag_26\n      jump\t// in\n    tag_43:\n      tag_44\n      jump\t// in\n    tag_42:\n      mload(0x40)\n      tag_45\n      swap4\n      swap3\n      swap2\n      swap1\n      tag_46\n      jump\t// in\n    tag_45:\n      mload(0x40)\n      dup1\n      swap2\n      sub\n      swap1\n      return\n        /* \"contracts/Gravity.sol\":1685:2045  function updateGravatarImage(string memory _imageUrl) public {... */\n    tag_15:\n        /* \"contracts/Gravity.sol\":1792:1793  0 */\n      0x00\n        /* \"contracts/Gravity.sol\":1761:1776  ownerToGravatar */\n      0x02\n        /* \"contracts/Gravity.sol\":1761:1788  ownerToGravatar[msg.sender] */\n      0x00\n        /* \"contracts/Gravity.sol\":1777:1787  msg.sender */\n      caller\n        /* \"contracts/Gravity.sol\":1761:1788  ownerToGravatar[msg.sender] */\n      0xffffffffffffffffffffffffffffffffffffffff\n      and\n      0xffffffffffffffffffffffffffffffffffffffff\n      and\n      dup2\n      mstore\n      0x20\n      add\n      swap1\n      dup2\n      mstore\n      0x20\n      add\n      0x00\n      keccak256\n      sload\n        /* \"contracts/Gravity.sol\":1761:1793  ownerToGravatar[msg.sender] != 0 */\n      eq\n      iszero\n        /* \"contracts/Gravity.sol\":1753:1794  require(ownerToGravatar[msg.sender] != 0) */\n      tag_48\n      jumpi\n      0x00\n      dup1\n      revert\n    tag_48:\n        /* \"contracts/Gravity.sol\":1823:1832  gravatars */\n      0x00\n        /* \"contracts/Gravity.sol\":1833:1848  ownerToGravatar */\n      0x02\n        /* \"contracts/Gravity.sol\":1833:1860  ownerToGravatar[msg.sender] */\n      0x00\n        /* \"contracts/Gravity.sol\":1849:1859  msg.sender */\n      caller\n        /* \"contracts/Gravity.sol\":1833:1860  ownerToGravatar[msg.sender] */\n      0xffffffffffffffffffffffffffffffffffffffff\n      and\n      0xffffffffffffffffffffffffffffffffffffffff\n      and\n      dup2\n      mstore\n      0x20\n      add\n      swap1\n      dup2\n      mstore\n      0x20\n      add\n      0x00\n      keccak256\n      sload\n        /* \"contracts/Gravity.sol\":1823:1861  gravatars[ownerToGravatar[msg.sender]] */\n      dup2\n      sload\n      dup2\n      lt\n      tag_49\n      jumpi\n      tag_50\n      tag_51\n      jump\t// in\n    tag_50:\n    tag_49:\n      swap1\n      0x00\n      mstore\n      keccak256(0x00, 0x20)\n      swap1\n      0x03\n      mul\n      add\n        /* \"contracts/Gravity.sol\":1823:1867  gravatars[ownerToGravatar[msg.sender]].owner */\n      0x00\n      add\n      0x00\n      swap1\n      sload\n      swap1\n      0x0100\n      exp\n      swap1\n      div\n      0xffffffffffffffffffffffffffffffffffffffff\n      and\n        /* \"contracts/Gravity.sol\":1809:1867  msg.sender == gravatars[ownerToGravatar[msg.sender]].owner */\n      0xffffffffffffffffffffffffffffffffffffffff\n      and\n        /* \"contracts/Gravity.sol\":1809:1819  msg.sender */\n      caller\n        /* \"contracts/Gravity.sol\":1809:1867  msg.sender == gravatars[ownerToGravatar[msg.sender]].owner */\n      0xffffffffffffffffffffffffffffffffffffffff\n      and\n      eq\n        /* \"contracts/Gravity.sol\":1801:1868  require(msg.sender == gravatars[ownerToGravatar[msg.sender]].owner) */\n      tag_53\n      jumpi\n      0x00\n      dup1\n      revert\n    tag_53:\n        /* \"contracts/Gravity.sol\":1877:1884  uint id */\n      0x00\n        /* \"contracts/Gravity.sol\":1887:1902  ownerToGravatar */\n      0x02\n        /* \"contracts/Gravity.sol\":1887:1914  ownerToGravatar[msg.sender] */\n      0x00\n        /* \"contracts/Gravity.sol\":1903:1913  msg.sender */\n      caller\n        /* \"contracts/Gravity.sol\":1887:1914  ownerToGravatar[msg.sender] */\n      0xffffffffffffffffffffffffffffffffffffffff\n      and\n      0xffffffffffffffffffffffffffffffffffffffff\n      and\n      dup2\n      mstore\n      0x20\n      add\n      swap1\n      dup2\n      mstore\n      0x20\n      add\n      0x00\n      keccak256\n      sload\n        /* \"contracts/Gravity.sol\":1877:1914  uint id = ownerToGravatar[msg.sender] */\n      swap1\n      pop\n        /* \"contracts/Gravity.sol\":1949:1958  _imageUrl */\n      dup2\n        /* \"contracts/Gravity.sol\":1923:1932  gravatars */\n      0x00\n        /* \"contracts/Gravity.sol\":1933:1935  id */\n      dup3\n        /* \"contracts/Gravity.sol\":1923:1936  gravatars[id] */\n      dup2\n      sload\n      dup2\n      lt\n      tag_54\n      jumpi\n      tag_55\n      tag_51\n      jump\t// in\n    tag_55:\n    tag_54:\n      swap1\n      0x00\n      mstore\n      keccak256(0x00, 0x20)\n      swap1\n      0x03\n      mul\n      add\n        /* \"contracts/Gravity.sol\":1923:1945  gravatars[id].imageUrl */\n      0x02\n      add\n        /* \"contracts/Gravity.sol\":1923:1958  gravatars[id].imageUrl =  _imageUrl */\n      swap1\n      dup1\n      mload\n      swap1\n      0x20\n      add\n      swap1\n      tag_57\n      swap3\n      swap2\n      swap1\n      tag_58\n      jump\t// in\n    tag_57:\n      pop\n        /* \"contracts/Gravity.sol\":1970:2039  UpdatedGravatar(id, msg.sender, gravatars[id].displayName, _imageUrl) */\n      0x76571b7a897a1509c641587568218a290018fbdc8b9a724f17b77ff0eec22c0c\n        /* \"contracts/Gravity.sol\":1986:1988  id */\n      dup2\n        /* \"contracts/Gravity.sol\":1990:2000  msg.sender */\n      caller\n        /* \"contracts/Gravity.sol\":2002:2011  gravatars */\n      0x00\n        /* \"contracts/Gravity.sol\":2012:2014  id */\n      dup5\n        /* \"contracts/Gravity.sol\":2002:2015  gravatars[id] */\n      dup2\n      sload\n      dup2\n      lt\n      tag_59\n      jumpi\n      tag_60\n      tag_51\n      jump\t// in\n    tag_60:\n    tag_59:\n      swap1\n      0x00\n      mstore\n      keccak256(0x00, 0x20)\n      swap1\n      0x03\n      mul\n      add\n        /* \"contracts/Gravity.sol\":2002:2027  gravatars[id].displayName */\n      0x01\n      add\n        /* \"contracts/Gravity.sol\":2029:2038  _imageUrl */\n      dup6\n        /* \"contracts/Gravity.sol\":1970:2039  UpdatedGravatar(id, msg.sender, gravatars[id].displayName, _imageUrl) */\n      mload(0x40)\n      tag_62\n      swap5\n      swap4\n      swap3\n      swap2\n      swap1\n      tag_63\n      jump\t// in\n    tag_62:\n      mload(0x40)\n      dup1\n      swap2\n      sub\n      swap1\n      log1\n        /* \"contracts/Gravity.sol\":1746:2045  {... */\n      pop\n        /* \"contracts/Gravity.sol\":1685:2045  function updateGravatarImage(string memory _imageUrl) public {... */\n      pop\n      jump\t// out\n        /* \"contracts/Gravity.sol\":2272:2441  function setMythicalGravatar() public {... */\n    tag_17:\n        /* \"contracts/Gravity.sol\":2339:2381  0x8d3e809Fbd258083a5Ba004a527159Da535c8abA */\n      0x8d3e809fbd258083a5ba004a527159da535c8aba\n        /* \"contracts/Gravity.sol\":2325:2381  msg.sender == 0x8d3e809Fbd258083a5Ba004a527159Da535c8abA */\n      0xffffffffffffffffffffffffffffffffffffffff\n      and\n        /* \"contracts/Gravity.sol\":2325:2335  msg.sender */\n      caller\n        /* \"contracts/Gravity.sol\":2325:2381  msg.sender == 0x8d3e809Fbd258083a5Ba004a527159Da535c8abA */\n      0xffffffffffffffffffffffffffffffffffffffff\n      and\n      eq\n        /* \"contracts/Gravity.sol\":2317:2382  require(msg.sender == 0x8d3e809Fbd258083a5Ba004a527159Da535c8abA) */\n      tag_65\n      jumpi\n      0x00\n      dup1\n      revert\n    tag_65:\n        /* \"contracts/Gravity.sol\":2389:2398  gravatars */\n      0x00\n        /* \"contracts/Gravity.sol\":2404:2434  Gravatar(address(0), \" \", \" \") */\n      mload(0x40)\n      dup1\n      0x60\n      add\n      0x40\n      mstore\n      dup1\n        /* \"contracts/Gravity.sol\":2421:2422  0 */\n      0x00\n        /* \"contracts/Gravity.sol\":2404:2434  Gravatar(address(0), \" \", \" \") */\n      0xffffffffffffffffffffffffffffffffffffffff\n      and\n      dup2\n      mstore\n      0x20\n      add\n      mload(0x40)\n      dup1\n      0x40\n      add\n      0x40\n      mstore\n      dup1\n      0x01\n      dup2\n      mstore\n      0x20\n      add\n      0x2000000000000000000000000000000000000000000000000000000000000000\n      dup2\n      mstore\n      pop\n      dup2\n      mstore\n      0x20\n      add\n      mload(0x40)\n      dup1\n      0x40\n      add\n      0x40\n      mstore\n      dup1\n      0x01\n      dup2\n      mstore\n      0x20\n      add\n      0x2000000000000000000000000000000000000000000000000000000000000000\n      dup2\n      mstore\n      pop\n      dup2\n      mstore\n      pop\n        /* \"contracts/Gravity.sol\":2389:2435  gravatars.push(Gravatar(address(0), \" \", \" \")) */\n      swap1\n      dup1\n      0x01\n      dup2\n      sload\n      add\n      dup1\n      dup3\n      sstore\n      dup1\n      swap2\n      pop\n      pop\n      0x01\n      swap1\n      sub\n      swap1\n      0x00\n      mstore\n      keccak256(0x00, 0x20)\n      swap1\n      0x03\n      mul\n      add\n      0x00\n      swap1\n      swap2\n      swap1\n      swap2\n      swap1\n      swap2\n      pop\n      0x00\n      dup3\n      add\n      mload\n      dup2\n      0x00\n      add\n      exp(0x0100, 0x00)\n      dup2\n      sload\n      dup2\n      0xffffffffffffffffffffffffffffffffffffffff\n      mul\n      not\n      and\n      swap1\n      dup4\n      0xffffffffffffffffffffffffffffffffffffffff\n      and\n      mul\n      or\n      swap1\n      sstore\n      pop\n      0x20\n      dup3\n      add\n      mload\n      dup2\n      0x01\n      add\n      swap1\n      dup1\n      mload\n      swap1\n      0x20\n      add\n      swap1\n      tag_67\n      swap3\n      swap2\n      swap1\n      tag_58\n      jump\t// in\n    tag_67:\n      pop\n      0x40\n      dup3\n      add\n      mload\n      dup2\n      0x02\n      add\n      swap1\n      dup1\n      mload\n      swap1\n      0x20\n      add\n      swap1\n      tag_68\n      swap3\n      swap2\n      swap1\n      tag_58\n      jump\t// in\n    tag_68:\n      pop\n      pop\n      pop\n        /* \"contracts/Gravity.sol\":2272:2441  function setMythicalGravatar() public {... */\n      jump\t// out\n        /* \"contracts/Gravity.sol\":1108:1306  function getGravatar(address owner) public view returns (string memory , string memory) {... */\n    tag_21:\n        /* \"contracts/Gravity.sol\":1165:1178  string memory */\n      0x60\n        /* \"contracts/Gravity.sol\":1181:1194  string memory */\n      dup1\n        /* \"contracts/Gravity.sol\":1203:1210  uint id */\n      0x00\n        /* \"contracts/Gravity.sol\":1213:1228  ownerToGravatar */\n      0x02\n        /* \"contracts/Gravity.sol\":1213:1235  ownerToGravatar[owner] */\n      0x00\n        /* \"contracts/Gravity.sol\":1229:1234  owner */\n      dup6\n        /* \"contracts/Gravity.sol\":1213:1235  ownerToGravatar[owner] */\n      0xffffffffffffffffffffffffffffffffffffffff\n      and\n      0xffffffffffffffffffffffffffffffffffffffff\n      and\n      dup2\n      mstore\n      0x20\n      add\n      swap1\n      dup2\n      mstore\n      0x20\n      add\n      0x00\n      keccak256\n      sload\n        /* \"contracts/Gravity.sol\":1203:1235  uint id = ownerToGravatar[owner] */\n      swap1\n      pop\n        /* \"contracts/Gravity.sol\":1250:1259  gravatars */\n      0x00\n        /* \"contracts/Gravity.sol\":1260:1262  id */\n      dup2\n        /* \"contracts/Gravity.sol\":1250:1263  gravatars[id] */\n      dup2\n      sload\n      dup2\n      lt\n      tag_70\n      jumpi\n      tag_71\n      tag_51\n      jump\t// in\n    tag_71:\n    tag_70:\n      swap1\n      0x00\n      mstore\n      keccak256(0x00, 0x20)\n      swap1\n      0x03\n      mul\n      add\n        /* \"contracts/Gravity.sol\":1250:1275  gravatars[id].displayName */\n      0x01\n      add\n        /* \"contracts/Gravity.sol\":1277:1286  gravatars */\n      0x00\n        /* \"contracts/Gravity.sol\":1287:1289  id */\n      dup3\n        /* \"contracts/Gravity.sol\":1277:1290  gravatars[id] */\n      dup2\n      sload\n      dup2\n      lt\n      tag_73\n      jumpi\n      tag_74\n      tag_51\n      jump\t// in\n    tag_74:\n    tag_73:\n      swap1\n      0x00\n      mstore\n      keccak256(0x00, 0x20)\n      swap1\n      0x03\n      mul\n      add\n        /* \"contracts/Gravity.sol\":1277:1299  gravatars[id].imageUrl */\n      0x02\n      add\n        /* \"contracts/Gravity.sol\":1242:1300  return (gravatars[id].displayName, gravatars[id].imageUrl) */\n      dup2\n      dup1\n      sload\n      tag_76\n      swap1\n      tag_77\n      jump\t// in\n    tag_76:\n      dup1\n      0x1f\n      add\n      0x20\n      dup1\n      swap2\n      div\n      mul\n      0x20\n      add\n      mload(0x40)\n      swap1\n      dup2\n      add\n      0x40\n      mstore\n      dup1\n      swap3\n      swap2\n      swap1\n      dup2\n      dup2\n      mstore\n      0x20\n      add\n      dup3\n      dup1\n      sload\n      tag_78\n      swap1\n      tag_77\n      jump\t// in\n    tag_78:\n      dup1\n      iszero\n      tag_79\n      jumpi\n      dup1\n      0x1f\n      lt\n      tag_80\n      jumpi\n      0x0100\n      dup1\n      dup4\n      sload\n      div\n      mul\n      dup4\n      mstore\n      swap2\n      0x20\n      add\n      swap2\n      jump(tag_79)\n    tag_80:\n      dup3\n      add\n      swap2\n      swap1\n      0x00\n      mstore\n      keccak256(0x00, 0x20)\n      swap1\n    tag_81:\n      dup2\n      sload\n      dup2\n      mstore\n      swap1\n      0x01\n      add\n      swap1\n      0x20\n      add\n      dup1\n      dup4\n      gt\n      tag_81\n      jumpi\n      dup3\n      swap1\n      sub\n      0x1f\n      and\n      dup3\n      add\n      swap2\n    tag_79:\n      pop\n      pop\n      pop\n      pop\n      pop\n      swap2\n      pop\n      dup1\n      dup1\n      sload\n      tag_82\n      swap1\n      tag_77\n      jump\t// in\n    tag_82:\n      dup1\n      0x1f\n      add\n      0x20\n      dup1\n      swap2\n      div\n      mul\n      0x20\n      add\n      mload(0x40)\n      swap1\n      dup2\n      add\n      0x40\n      mstore\n      dup1\n      swap3\n      swap2\n      swap1\n      dup2\n      dup2\n      mstore\n      0x20\n      add\n      dup3\n      dup1\n      sload\n      tag_83\n      swap1\n      tag_77\n      jump\t// in\n    tag_83:\n      dup1\n      iszero\n      tag_84\n      jumpi\n      dup1\n      0x1f\n      lt\n      tag_85\n      jumpi\n      0x0100\n      dup1\n      dup4\n      sload\n      div\n      mul\n      dup4\n      mstore\n      swap2\n      0x20\n      add\n      swap2\n      jump(tag_84)\n    tag_85:\n      dup3\n      add\n      swap2\n      swap1\n      0x00\n      mstore\n      keccak256(0x00, 0x20)\n      swap1\n    tag_86:\n      dup2\n      sload\n      dup2\n      mstore\n      swap1\n      0x01\n      add\n      swap1\n      0x20\n      add\n      dup1\n      dup4\n      gt\n      tag_86\n      jumpi\n      dup3\n      swap1\n      sub\n      0x1f\n      and\n      dup3\n      add\n      swap2\n    tag_84:\n      pop\n      pop\n      pop\n      pop\n      pop\n      swap1\n      pop\n      swap3\n      pop\n      swap3\n      pop\n      pop\n        /* \"contracts/Gravity.sol\":1108:1306  function getGravatar(address owner) public view returns (string memory , string memory) {... */\n      swap2\n      pop\n      swap2\n      jump\t// out\n        /* \"contracts/Gravity.sol\":494:542  mapping (uint => address) public gravatarToOwner */\n    tag_27:\n      mstore(0x20, 0x01)\n      dup1\n      0x00\n      mstore\n      keccak256(0x00, 0x40)\n      0x00\n      swap2\n      pop\n      sload\n      swap1\n      0x0100\n      exp\n      swap1\n      div\n      0xffffffffffffffffffffffffffffffffffffffff\n      and\n      dup2\n      jump\t// out\n        /* \"contracts/Gravity.sol\":547:595  mapping (address => uint) public ownerToGravatar */\n    tag_32:\n      mstore(0x20, 0x02)\n      dup1\n      0x00\n      mstore\n      keccak256(0x00, 0x40)\n      0x00\n      swap2\n      pop\n      swap1\n      pop\n      sload\n      dup2\n      jump\t// out\n        /* \"contracts/Gravity.sol\":1312:1679  function updateGravatarName(string memory _displayName) public {... */\n    tag_37:\n        /* \"contracts/Gravity.sol\":1421:1422  0 */\n      0x00\n        /* \"contracts/Gravity.sol\":1390:1405  ownerToGravatar */\n      0x02\n        /* \"contracts/Gravity.sol\":1390:1417  ownerToGravatar[msg.sender] */\n      0x00\n        /* \"contracts/Gravity.sol\":1406:1416  msg.sender */\n      caller\n        /* \"contracts/Gravity.sol\":1390:1417  ownerToGravatar[msg.sender] */\n      0xffffffffffffffffffffffffffffffffffffffff\n      and\n      0xffffffffffffffffffffffffffffffffffffffff\n      and\n      dup2\n      mstore\n      0x20\n      add\n      swap1\n      dup2\n      mstore\n      0x20\n      add\n      0x00\n      keccak256\n      sload\n        /* \"contracts/Gravity.sol\":1390:1422  ownerToGravatar[msg.sender] != 0 */\n      eq\n      iszero\n        /* \"contracts/Gravity.sol\":1382:1423  require(ownerToGravatar[msg.sender] != 0) */\n      tag_88\n      jumpi\n      0x00\n      dup1\n      revert\n    tag_88:\n        /* \"contracts/Gravity.sol\":1452:1461  gravatars */\n      0x00\n        /* \"contracts/Gravity.sol\":1462:1477  ownerToGravatar */\n      0x02\n        /* \"contracts/Gravity.sol\":1462:1489  ownerToGravatar[msg.sender] */\n      0x00\n        /* \"contracts/Gravity.sol\":1478:1488  msg.sender */\n      caller\n        /* \"contracts/Gravity.sol\":1462:1489  ownerToGravatar[msg.sender] */\n      0xffffffffffffffffffffffffffffffffffffffff\n      and\n      0xffffffffffffffffffffffffffffffffffffffff\n      and\n      dup2\n      mstore\n      0x20\n      add\n      swap1\n      dup2\n      mstore\n      0x20\n      add\n      0x00\n      keccak256\n      sload\n        /* \"contracts/Gravity.sol\":1452:1490  gravatars[ownerToGravatar[msg.sender]] */\n      dup2\n      sload\n      dup2\n      lt\n      tag_89\n      jumpi\n      tag_90\n      tag_51\n      jump\t// in\n    tag_90:\n    tag_89:\n      swap1\n      0x00\n      mstore\n      keccak256(0x00, 0x20)\n      swap1\n      0x03\n      mul\n      add\n        /* \"contracts/Gravity.sol\":1452:1496  gravatars[ownerToGravatar[msg.sender]].owner */\n      0x00\n      add\n      0x00\n      swap1\n      sload\n      swap1\n      0x0100\n      exp\n      swap1\n      div\n      0xffffffffffffffffffffffffffffffffffffffff\n      and\n        /* \"contracts/Gravity.sol\":1438:1496  msg.sender == gravatars[ownerToGravatar[msg.sender]].owner */\n      0xffffffffffffffffffffffffffffffffffffffff\n      and\n        /* \"contracts/Gravity.sol\":1438:1448  msg.sender */\n      caller\n        /* \"contracts/Gravity.sol\":1438:1496  msg.sender == gravatars[ownerToGravatar[msg.sender]].owner */\n      0xffffffffffffffffffffffffffffffffffffffff\n      and\n      eq\n        /* \"contracts/Gravity.sol\":1430:1497  require(msg.sender == gravatars[ownerToGravatar[msg.sender]].owner) */\n      tag_92\n      jumpi\n      0x00\n      dup1\n      revert\n    tag_92:\n        /* \"contracts/Gravity.sol\":1506:1513  uint id */\n      0x00\n        /* \"contracts/Gravity.sol\":1516:1531  ownerToGravatar */\n      0x02\n        /* \"contracts/Gravity.sol\":1516:1543  ownerToGravatar[msg.sender] */\n      0x00\n        /* \"contracts/Gravity.sol\":1532:1542  msg.sender */\n      caller\n        /* \"contracts/Gravity.sol\":1516:1543  ownerToGravatar[msg.sender] */\n      0xffffffffffffffffffffffffffffffffffffffff\n      and\n      0xffffffffffffffffffffffffffffffffffffffff\n      and\n      dup2\n      mstore\n      0x20\n      add\n      swap1\n      dup2\n      mstore\n      0x20\n      add\n      0x00\n      keccak256\n      sload\n        /* \"contracts/Gravity.sol\":1506:1543  uint id = ownerToGravatar[msg.sender] */\n      swap1\n      pop\n        /* \"contracts/Gravity.sol\":1580:1592  _displayName */\n      dup2\n        /* \"contracts/Gravity.sol\":1552:1561  gravatars */\n      0x00\n        /* \"contracts/Gravity.sol\":1562:1564  id */\n      dup3\n        /* \"contracts/Gravity.sol\":1552:1565  gravatars[id] */\n      dup2\n      sload\n      dup2\n      lt\n      tag_93\n      jumpi\n      tag_94\n      tag_51\n      jump\t// in\n    tag_94:\n    tag_93:\n      swap1\n      0x00\n      mstore\n      keccak256(0x00, 0x20)\n      swap1\n      0x03\n      mul\n      add\n        /* \"contracts/Gravity.sol\":1552:1577  gravatars[id].displayName */\n      0x01\n      add\n        /* \"contracts/Gravity.sol\":1552:1592  gravatars[id].displayName = _displayName */\n      swap1\n      dup1\n      mload\n      swap1\n      0x20\n      add\n      swap1\n      tag_96\n      swap3\n      swap2\n      swap1\n      tag_58\n      jump\t// in\n    tag_96:\n      pop\n        /* \"contracts/Gravity.sol\":1604:1673  UpdatedGravatar(id, msg.sender, _displayName, gravatars[id].imageUrl) */\n      0x76571b7a897a1509c641587568218a290018fbdc8b9a724f17b77ff0eec22c0c\n        /* \"contracts/Gravity.sol\":1620:1622  id */\n      dup2\n        /* \"contracts/Gravity.sol\":1624:1634  msg.sender */\n      caller\n        /* \"contracts/Gravity.sol\":1636:1648  _displayName */\n      dup5\n        /* \"contracts/Gravity.sol\":1650:1659  gravatars */\n      0x00\n        /* \"contracts/Gravity.sol\":1660:1662  id */\n      dup6\n        /* \"contracts/Gravity.sol\":1650:1663  gravatars[id] */\n      dup2\n      sload\n      dup2\n      lt\n      tag_97\n      jumpi\n      tag_98\n      tag_51\n      jump\t// in\n    tag_98:\n    tag_97:\n      swap1\n      0x00\n      mstore\n      keccak256(0x00, 0x20)\n      swap1\n      0x03\n      mul\n      add\n        /* \"contracts/Gravity.sol\":1650:1672  gravatars[id].imageUrl */\n      0x02\n      add\n        /* \"contracts/Gravity.sol\":1604:1673  UpdatedGravatar(id, msg.sender, _displayName, gravatars[id].imageUrl) */\n      mload(0x40)\n      tag_100\n      swap5\n      swap4\n      swap3\n      swap2\n      swap1\n      tag_101\n      jump\t// in\n    tag_100:\n      mload(0x40)\n      dup1\n      swap2\n      sub\n      swap1\n      log1\n        /* \"contracts/Gravity.sol\":1375:1679  {... */\n      pop\n        /* \"contracts/Gravity.sol\":1312:1679  function updateGravatarName(string memory _displayName) public {... */\n      pop\n      jump\t// out\n        /* \"contracts/Gravity.sol\":602:1102  function createGravatar(string memory _displayName, string memory _imageUrl) public {... */\n    tag_41:\n        /* \"contracts/Gravity.sol\":765:766  0 */\n      0x00\n        /* \"contracts/Gravity.sol\":734:749  ownerToGravatar */\n      0x02\n        /* \"contracts/Gravity.sol\":734:761  ownerToGravatar[msg.sender] */\n      0x00\n        /* \"contracts/Gravity.sol\":750:760  msg.sender */\n      caller\n        /* \"contracts/Gravity.sol\":734:761  ownerToGravatar[msg.sender] */\n      0xffffffffffffffffffffffffffffffffffffffff\n      and\n      0xffffffffffffffffffffffffffffffffffffffff\n      and\n      dup2\n      mstore\n      0x20\n      add\n      swap1\n      dup2\n      mstore\n      0x20\n      add\n      0x00\n      keccak256\n      sload\n        /* \"contracts/Gravity.sol\":734:766  ownerToGravatar[msg.sender] == 0 */\n      eq\n        /* \"contracts/Gravity.sol\":726:767  require(ownerToGravatar[msg.sender] == 0) */\n      tag_103\n      jumpi\n      0x00\n      dup1\n      revert\n    tag_103:\n        /* \"contracts/Gravity.sol\":777:786  gravatars */\n      0x00\n        /* \"contracts/Gravity.sol\":792:837  Gravatar(msg.sender, _displayName, _imageUrl) */\n      mload(0x40)\n      dup1\n      0x60\n      add\n      0x40\n      mstore\n      dup1\n        /* \"contracts/Gravity.sol\":801:811  msg.sender */\n      caller\n        /* \"contracts/Gravity.sol\":792:837  Gravatar(msg.sender, _displayName, _imageUrl) */\n      0xffffffffffffffffffffffffffffffffffffffff\n      and\n      dup2\n      mstore\n      0x20\n      add\n        /* \"contracts/Gravity.sol\":813:825  _displayName */\n      dup5\n        /* \"contracts/Gravity.sol\":792:837  Gravatar(msg.sender, _displayName, _imageUrl) */\n      dup2\n      mstore\n      0x20\n      add\n        /* \"contracts/Gravity.sol\":827:836  _imageUrl */\n      dup4\n        /* \"contracts/Gravity.sol\":792:837  Gravatar(msg.sender, _displayName, _imageUrl) */\n      dup2\n      mstore\n      pop\n        /* \"contracts/Gravity.sol\":777:838  gravatars.push(Gravatar(msg.sender, _displayName, _imageUrl)) */\n      swap1\n      dup1\n      0x01\n      dup2\n      sload\n      add\n      dup1\n      dup3\n      sstore\n      dup1\n      swap2\n      pop\n      pop\n      0x01\n      swap1\n      sub\n      swap1\n      0x00\n      mstore\n      keccak256(0x00, 0x20)\n      swap1\n      0x03\n      mul\n      add\n      0x00\n      swap1\n      swap2\n      swap1\n      swap2\n      swap1\n      swap2\n      pop\n      0x00\n      dup3\n      add\n      mload\n      dup2\n      0x00\n      add\n      exp(0x0100, 0x00)\n      dup2\n      sload\n      dup2\n      0xffffffffffffffffffffffffffffffffffffffff\n      mul\n      not\n      and\n      swap1\n      dup4\n      0xffffffffffffffffffffffffffffffffffffffff\n      and\n      mul\n      or\n      swap1\n      sstore\n      pop\n      0x20\n      dup3\n      add\n      mload\n      dup2\n      0x01\n      add\n      swap1\n      dup1\n      mload\n      swap1\n      0x20\n      add\n      swap1\n      tag_105\n      swap3\n      swap2\n      swap1\n      tag_58\n      jump\t// in\n    tag_105:\n      pop\n      0x40\n      dup3\n      add\n      mload\n      dup2\n      0x02\n      add\n      swap1\n      dup1\n      mload\n      swap1\n      0x20\n      add\n      swap1\n      tag_106\n      swap3\n      swap2\n      swap1\n      tag_58\n      jump\t// in\n    tag_106:\n      pop\n      pop\n      pop\n        /* \"contracts/Gravity.sol\":923:930  uint id */\n      0x00\n        /* \"contracts/Gravity.sol\":933:942  gravatars */\n      dup1\n        /* \"contracts/Gravity.sol\":933:949  gravatars.length */\n      dup1\n      sload\n      swap1\n      pop\n        /* \"contracts/Gravity.sol\":923:949  uint id = gravatars.length */\n      swap1\n      pop\n        /* \"contracts/Gravity.sol\":987:989  id */\n      dup1\n        /* \"contracts/Gravity.sol\":957:972  ownerToGravatar */\n      0x02\n        /* \"contracts/Gravity.sol\":957:984  ownerToGravatar[msg.sender] */\n      0x00\n        /* \"contracts/Gravity.sol\":973:983  msg.sender */\n      caller\n        /* \"contracts/Gravity.sol\":957:984  ownerToGravatar[msg.sender] */\n      0xffffffffffffffffffffffffffffffffffffffff\n      and\n      0xffffffffffffffffffffffffffffffffffffffff\n      and\n      dup2\n      mstore\n      0x20\n      add\n      swap1\n      dup2\n      mstore\n      0x20\n      add\n      0x00\n      keccak256\n        /* \"contracts/Gravity.sol\":957:989  ownerToGravatar[msg.sender] = id */\n      dup2\n      swap1\n      sstore\n      pop\n        /* \"contracts/Gravity.sol\":1020:1030  msg.sender */\n      caller\n        /* \"contracts/Gravity.sol\":998:1013  gravatarToOwner */\n      0x01\n        /* \"contracts/Gravity.sol\":998:1017  gravatarToOwner[id] */\n      0x00\n        /* \"contracts/Gravity.sol\":1014:1016  id */\n      dup4\n        /* \"contracts/Gravity.sol\":998:1017  gravatarToOwner[id] */\n      dup2\n      mstore\n      0x20\n      add\n      swap1\n      dup2\n      mstore\n      0x20\n      add\n      0x00\n      keccak256\n      0x00\n        /* \"contracts/Gravity.sol\":998:1030  gravatarToOwner[id] = msg.sender */\n      0x0100\n      exp\n      dup2\n      sload\n      dup2\n      0xffffffffffffffffffffffffffffffffffffffff\n      mul\n      not\n      and\n      swap1\n      dup4\n      0xffffffffffffffffffffffffffffffffffffffff\n      and\n      mul\n      or\n      swap1\n      sstore\n      pop\n        /* \"contracts/Gravity.sol\":1044:1096  NewGravatar(id, msg.sender, _displayName, _imageUrl) */\n      0x9ab3aefb2ba6dc12910ac1bce4692cf5c3c0d06cff16327c64a3ef78228b130b\n        /* \"contracts/Gravity.sol\":1056:1058  id */\n      dup2\n        /* \"contracts/Gravity.sol\":1060:1070  msg.sender */\n      caller\n        /* \"contracts/Gravity.sol\":1072:1084  _displayName */\n      dup6\n        /* \"contracts/Gravity.sol\":1086:1095  _imageUrl */\n      dup6\n        /* \"contracts/Gravity.sol\":1044:1096  NewGravatar(id, msg.sender, _displayName, _imageUrl) */\n      mload(0x40)\n      tag_107\n      swap5\n      swap4\n      swap3\n      swap2\n      swap1\n      tag_108\n      jump\t// in\n    tag_107:\n      mload(0x40)\n      dup1\n      swap2\n      sub\n      swap1\n      log1\n        /* \"contracts/Gravity.sol\":686:1102  {... */\n      pop\n        /* \"contracts/Gravity.sol\":602:1102  function createGravatar(string memory _displayName, string memory _imageUrl) public {... */\n      pop\n      pop\n      jump\t// out\n        /* \"contracts/Gravity.sol\":460:487  Gravatar[] public gravatars */\n    tag_44:\n      0x00\n      dup2\n      dup2\n      sload\n      dup2\n      lt\n      tag_109\n      jumpi\n      0x00\n      dup1\n      revert\n    tag_109:\n      swap1\n      0x00\n      mstore\n      keccak256(0x00, 0x20)\n      swap1\n      0x03\n      mul\n      add\n      0x00\n      swap2\n      pop\n      swap1\n      pop\n      dup1\n      0x00\n      add\n      0x00\n      swap1\n      sload\n      swap1\n      0x0100\n      exp\n      swap1\n      div\n      0xffffffffffffffffffffffffffffffffffffffff\n      and\n      swap1\n      dup1\n      0x01\n      add\n      dup1\n      sload\n      tag_111\n      swap1\n      tag_77\n      jump\t// in\n    tag_111:\n      dup1\n      0x1f\n      add\n      0x20\n      dup1\n      swap2\n      div\n      mul\n      0x20\n      add\n      mload(0x40)\n      swap1\n      dup2\n      add\n      0x40\n      mstore\n      dup1\n      swap3\n      swap2\n      swap1\n      dup2\n      dup2\n      mstore\n      0x20\n      add\n      dup3\n      dup1\n      sload\n      tag_112\n      swap1\n      tag_77\n      jump\t// in\n    tag_112:\n      dup1\n      iszero\n      tag_113\n      jumpi\n      dup1\n      0x1f\n      lt\n      tag_114\n      jumpi\n      0x0100\n      dup1\n      dup4\n      sload\n      div\n      mul\n      dup4\n      mstore\n      swap2\n      0x20\n      add\n      swap2\n      jump(tag_113)\n    tag_114:\n      dup3\n      add\n      swap2\n      swap1\n      0x00\n      mstore\n      keccak256(0x00, 0x20)\n      swap1\n    tag_115:\n      dup2\n      sload\n      dup2\n      mstore\n      swap1\n      0x01\n      add\n      swap1\n      0x20\n      add\n      dup1\n      dup4\n      gt\n      tag_115\n      jumpi\n      dup3\n      swap1\n      sub\n      0x1f\n      and\n      dup3\n      add\n      swap2\n    tag_113:\n      pop\n      pop\n      pop\n      pop\n      pop\n      swap1\n      dup1\n      0x02\n      add\n      dup1\n      sload\n      tag_116\n      swap1\n      tag_77\n      jump\t// in\n    tag_116:\n      dup1\n      0x1f\n      add\n      0x20\n      dup1\n      swap2\n      div\n      mul\n      0x20\n      add\n      mload(0x40)\n      swap1\n      dup2\n      add\n      0x40\n      mstore\n      dup1\n      swap3\n      swap2\n      swap1\n      dup2\n      dup2\n      mstore\n      0x20\n      add\n      dup3\n      dup1\n      sload\n      tag_117\n      swap1\n      tag_77\n      jump\t// in\n    tag_117:\n      dup1\n      iszero\n      tag_118\n      jumpi\n      dup1\n      0x1f\n      lt\n      tag_119\n      jumpi\n      0x0100\n      dup1\n      dup4\n      sload\n      div\n      mul\n      dup4\n      mstore\n      swap2\n      0x20\n      add\n      swap2\n      jump(tag_118)\n    tag_119:\n      dup3\n      add\n      swap2\n      swap1\n      0x00\n      mstore\n      keccak256(0x00, 0x20)\n      swap1\n    tag_120:\n      dup2\n      sload\n      dup2\n      mstore\n      swap1\n      0x01\n      add\n      swap1\n      0x20\n      add\n      dup1\n      dup4\n      gt\n      tag_120\n      jumpi\n      dup3\n      swap1\n      sub\n      0x1f\n      and\n      dup3\n      add\n      swap2\n    tag_118:\n      pop\n      pop\n      pop\n      pop\n      pop\n      swap1\n      pop\n      dup4\n      jump\t// out\n    tag_58:\n      dup3\n      dup1\n      sload\n      tag_121\n      swap1\n      tag_77\n      jump\t// in\n    tag_121:\n      swap1\n      0x00\n      mstore\n      keccak256(0x00, 0x20)\n      swap1\n      0x1f\n      add\n      0x20\n      swap1\n      div\n      dup2\n      add\n      swap3\n      dup3\n      tag_123\n      jumpi\n      0x00\n      dup6\n      sstore\n      jump(tag_122)\n    tag_123:\n      dup3\n      0x1f\n      lt\n      tag_124\n      jumpi\n      dup1\n      mload\n      not(0xff)\n      and\n      dup4\n      dup1\n      add\n      or\n      dup6\n      sstore\n      jump(tag_122)\n    tag_124:\n      dup3\n      dup1\n      add\n      0x01\n      add\n      dup6\n      sstore\n      dup3\n      iszero\n      tag_122\n      jumpi\n      swap2\n      dup3\n      add\n    tag_125:\n      dup3\n      dup2\n      gt\n      iszero\n      tag_126\n      jumpi\n      dup3\n      mload\n      dup3\n      sstore\n      swap2\n      0x20\n      add\n      swap2\n      swap1\n      0x01\n      add\n      swap1\n      jump(tag_125)\n    tag_126:\n    tag_122:\n      pop\n      swap1\n      pop\n      tag_127\n      swap2\n      swap1\n      tag_128\n      jump\t// in\n    tag_127:\n      pop\n      swap1\n      jump\t// out\n    tag_128:\n    tag_129:\n      dup1\n      dup3\n      gt\n      iszero\n      tag_130\n      jumpi\n      0x00\n      dup2\n      0x00\n      swap1\n      sstore\n      pop\n      0x01\n      add\n      jump(tag_129)\n    tag_130:\n      pop\n      swap1\n      jump\t// out\n        /* \"#utility.yul\":7:82   */\n    tag_131:\n        /* \"#utility.yul\":40:46   */\n      0x00\n        /* \"#utility.yul\":73:75   */\n      0x40\n        /* \"#utility.yul\":67:76   */\n      mload\n        /* \"#utility.yul\":57:76   */\n      swap1\n      pop\n        /* \"#utility.yul\":7:82   */\n      swap1\n      jump\t// out\n        /* \"#utility.yul\":88:205   */\n    tag_132:\n        /* \"#utility.yul\":197:198   */\n      0x00\n        /* \"#utility.yul\":194:195   */\n      dup1\n        /* \"#utility.yul\":187:199   */\n      revert\n        /* \"#utility.yul\":211:328   */\n    tag_133:\n        /* \"#utility.yul\":320:321   */\n      0x00\n        /* \"#utility.yul\":317:318   */\n      dup1\n        /* \"#utility.yul\":310:322   */\n      revert\n        /* \"#utility.yul\":334:451   */\n    tag_134:\n        /* \"#utility.yul\":443:444   */\n      0x00\n        /* \"#utility.yul\":440:441   */\n      dup1\n        /* \"#utility.yul\":433:445   */\n      revert\n        /* \"#utility.yul\":457:574   */\n    tag_135:\n        /* \"#utility.yul\":566:567   */\n      0x00\n        /* \"#utility.yul\":563:564   */\n      dup1\n        /* \"#utility.yul\":556:568   */\n      revert\n        /* \"#utility.yul\":580:682   */\n    tag_136:\n        /* \"#utility.yul\":621:627   */\n      0x00\n        /* \"#utility.yul\":672:674   */\n      0x1f\n        /* \"#utility.yul\":668:675   */\n      not\n        /* \"#utility.yul\":663:665   */\n      0x1f\n        /* \"#utility.yul\":656:661   */\n      dup4\n        /* \"#utility.yul\":652:666   */\n      add\n        /* \"#utility.yul\":648:676   */\n      and\n        /* \"#utility.yul\":638:676   */\n      swap1\n      pop\n        /* \"#utility.yul\":580:682   */\n      swap2\n      swap1\n      pop\n      jump\t// out\n        /* \"#utility.yul\":688:868   */\n    tag_137:\n        /* \"#utility.yul\":736:813   */\n      0x4e487b7100000000000000000000000000000000000000000000000000000000\n        /* \"#utility.yul\":733:734   */\n      0x00\n        /* \"#utility.yul\":726:814   */\n      mstore\n        /* \"#utility.yul\":833:837   */\n      0x41\n        /* \"#utility.yul\":830:831   */\n      0x04\n        /* \"#utility.yul\":823:838   */\n      mstore\n        /* \"#utility.yul\":857:861   */\n      0x24\n        /* \"#utility.yul\":854:855   */\n      0x00\n        /* \"#utility.yul\":847:862   */\n      revert\n        /* \"#utility.yul\":874:1155   */\n    tag_138:\n        /* \"#utility.yul\":957:984   */\n      tag_169\n        /* \"#utility.yul\":979:983   */\n      dup3\n        /* \"#utility.yul\":957:984   */\n      tag_136\n      jump\t// in\n    tag_169:\n        /* \"#utility.yul\":949:955   */\n      dup2\n        /* \"#utility.yul\":945:985   */\n      add\n        /* \"#utility.yul\":1087:1093   */\n      dup2\n        /* \"#utility.yul\":1075:1085   */\n      dup2\n        /* \"#utility.yul\":1072:1094   */\n      lt\n        /* \"#utility.yul\":1051:1069   */\n      0xffffffffffffffff\n        /* \"#utility.yul\":1039:1049   */\n      dup3\n        /* \"#utility.yul\":1036:1070   */\n      gt\n        /* \"#utility.yul\":1033:1095   */\n      or\n        /* \"#utility.yul\":1030:1118   */\n      iszero\n      tag_170\n      jumpi\n        /* \"#utility.yul\":1098:1116   */\n      tag_171\n      tag_137\n      jump\t// in\n    tag_171:\n        /* \"#utility.yul\":1030:1118   */\n    tag_170:\n        /* \"#utility.yul\":1138:1148   */\n      dup1\n        /* \"#utility.yul\":1134:1136   */\n      0x40\n        /* \"#utility.yul\":1127:1149   */\n      mstore\n        /* \"#utility.yul\":917:1155   */\n      pop\n        /* \"#utility.yul\":874:1155   */\n      pop\n      pop\n      jump\t// out\n        /* \"#utility.yul\":1161:1290   */\n    tag_139:\n        /* \"#utility.yul\":1195:1201   */\n      0x00\n        /* \"#utility.yul\":1222:1242   */\n      tag_173\n      tag_131\n      jump\t// in\n    tag_173:\n        /* \"#utility.yul\":1212:1242   */\n      swap1\n      pop\n        /* \"#utility.yul\":1251:1284   */\n      tag_174\n        /* \"#utility.yul\":1279:1283   */\n      dup3\n        /* \"#utility.yul\":1271:1277   */\n      dup3\n        /* \"#utility.yul\":1251:1284   */\n      tag_138\n      jump\t// in\n    tag_174:\n        /* \"#utility.yul\":1161:1290   */\n      swap2\n      swap1\n      pop\n      jump\t// out\n        /* \"#utility.yul\":1296:1604   */\n    tag_140:\n        /* \"#utility.yul\":1358:1362   */\n      0x00\n        /* \"#utility.yul\":1448:1466   */\n      0xffffffffffffffff\n        /* \"#utility.yul\":1440:1446   */\n      dup3\n        /* \"#utility.yul\":1437:1467   */\n      gt\n        /* \"#utility.yul\":1434:1490   */\n      iszero\n      tag_176\n      jumpi\n        /* \"#utility.yul\":1470:1488   */\n      tag_177\n      tag_137\n      jump\t// in\n    tag_177:\n        /* \"#utility.yul\":1434:1490   */\n    tag_176:\n        /* \"#utility.yul\":1508:1537   */\n      tag_178\n        /* \"#utility.yul\":1530:1536   */\n      dup3\n        /* \"#utility.yul\":1508:1537   */\n      tag_136\n      jump\t// in\n    tag_178:\n        /* \"#utility.yul\":1500:1537   */\n      swap1\n      pop\n        /* \"#utility.yul\":1592:1596   */\n      0x20\n        /* \"#utility.yul\":1586:1590   */\n      dup2\n        /* \"#utility.yul\":1582:1597   */\n      add\n        /* \"#utility.yul\":1574:1597   */\n      swap1\n      pop\n        /* \"#utility.yul\":1296:1604   */\n      swap2\n      swap1\n      pop\n      jump\t// out\n        /* \"#utility.yul\":1610:1764   */\n    tag_141:\n        /* \"#utility.yul\":1694:1700   */\n      dup3\n        /* \"#utility.yul\":1689:1692   */\n      dup2\n        /* \"#utility.yul\":1684:1687   */\n      dup4\n        /* \"#utility.yul\":1671:1701   */\n      calldatacopy\n        /* \"#utility.yul\":1756:1757   */\n      0x00\n        /* \"#utility.yul\":1747:1753   */\n      dup4\n        /* \"#utility.yul\":1742:1745   */\n      dup4\n        /* \"#utility.yul\":1738:1754   */\n      add\n        /* \"#utility.yul\":1731:1758   */\n      mstore\n        /* \"#utility.yul\":1610:1764   */\n      pop\n      pop\n      pop\n      jump\t// out\n        /* \"#utility.yul\":1770:2182   */\n    tag_142:\n        /* \"#utility.yul\":1848:1853   */\n      0x00\n        /* \"#utility.yul\":1873:1939   */\n      tag_181\n        /* \"#utility.yul\":1889:1938   */\n      tag_182\n        /* \"#utility.yul\":1931:1937   */\n      dup5\n        /* \"#utility.yul\":1889:1938   */\n      tag_140\n      jump\t// in\n    tag_182:\n        /* \"#utility.yul\":1873:1939   */\n      tag_139\n      jump\t// in\n    tag_181:\n        /* \"#utility.yul\":1864:1939   */\n      swap1\n      pop\n        /* \"#utility.yul\":1962:1968   */\n      dup3\n        /* \"#utility.yul\":1955:1960   */\n      dup2\n        /* \"#utility.yul\":1948:1969   */\n      mstore\n        /* \"#utility.yul\":2000:2004   */\n      0x20\n        /* \"#utility.yul\":1993:1998   */\n      dup2\n        /* \"#utility.yul\":1989:2005   */\n      add\n        /* \"#utility.yul\":2038:2041   */\n      dup5\n        /* \"#utility.yul\":2029:2035   */\n      dup5\n        /* \"#utility.yul\":2024:2027   */\n      dup5\n        /* \"#utility.yul\":2020:2036   */\n      add\n        /* \"#utility.yul\":2017:2042   */\n      gt\n        /* \"#utility.yul\":2014:2126   */\n      iszero\n      tag_183\n      jumpi\n        /* \"#utility.yul\":2045:2124   */\n      tag_184\n      tag_135\n      jump\t// in\n    tag_184:\n        /* \"#utility.yul\":2014:2126   */\n    tag_183:\n        /* \"#utility.yul\":2135:2176   */\n      tag_185\n        /* \"#utility.yul\":2169:2175   */\n      dup5\n        /* \"#utility.yul\":2164:2167   */\n      dup3\n        /* \"#utility.yul\":2159:2162   */\n      dup6\n        /* \"#utility.yul\":2135:2176   */\n      tag_141\n      jump\t// in\n    tag_185:\n        /* \"#utility.yul\":1854:2182   */\n      pop\n        /* \"#utility.yul\":1770:2182   */\n      swap4\n      swap3\n      pop\n      pop\n      pop\n      jump\t// out\n        /* \"#utility.yul\":2202:2542   */\n    tag_143:\n        /* \"#utility.yul\":2258:2263   */\n      0x00\n        /* \"#utility.yul\":2307:2310   */\n      dup3\n        /* \"#utility.yul\":2300:2304   */\n      0x1f\n        /* \"#utility.yul\":2292:2298   */\n      dup4\n        /* \"#utility.yul\":2288:2305   */\n      add\n        /* \"#utility.yul\":2284:2311   */\n      slt\n        /* \"#utility.yul\":2274:2396   */\n      tag_187\n      jumpi\n        /* \"#utility.yul\":2315:2394   */\n      tag_188\n      tag_134\n      jump\t// in\n    tag_188:\n        /* \"#utility.yul\":2274:2396   */\n    tag_187:\n        /* \"#utility.yul\":2432:2438   */\n      dup2\n        /* \"#utility.yul\":2419:2439   */\n      calldataload\n        /* \"#utility.yul\":2457:2536   */\n      tag_189\n        /* \"#utility.yul\":2532:2535   */\n      dup5\n        /* \"#utility.yul\":2524:2530   */\n      dup3\n        /* \"#utility.yul\":2517:2521   */\n      0x20\n        /* \"#utility.yul\":2509:2515   */\n      dup7\n        /* \"#utility.yul\":2505:2522   */\n      add\n        /* \"#utility.yul\":2457:2536   */\n      tag_142\n      jump\t// in\n    tag_189:\n        /* \"#utility.yul\":2448:2536   */\n      swap2\n      pop\n        /* \"#utility.yul\":2264:2542   */\n      pop\n        /* \"#utility.yul\":2202:2542   */\n      swap3\n      swap2\n      pop\n      pop\n      jump\t// out\n        /* \"#utility.yul\":2548:3057   */\n    tag_14:\n        /* \"#utility.yul\":2617:2623   */\n      0x00\n        /* \"#utility.yul\":2666:2668   */\n      0x20\n        /* \"#utility.yul\":2654:2663   */\n      dup3\n        /* \"#utility.yul\":2645:2652   */\n      dup5\n        /* \"#utility.yul\":2641:2664   */\n      sub\n        /* \"#utility.yul\":2637:2669   */\n      slt\n        /* \"#utility.yul\":2634:2753   */\n      iszero\n      tag_191\n      jumpi\n        /* \"#utility.yul\":2672:2751   */\n      tag_192\n      tag_132\n      jump\t// in\n    tag_192:\n        /* \"#utility.yul\":2634:2753   */\n    tag_191:\n        /* \"#utility.yul\":2820:2821   */\n      0x00\n        /* \"#utility.yul\":2809:2818   */\n      dup3\n        /* \"#utility.yul\":2805:2822   */\n      add\n        /* \"#utility.yul\":2792:2823   */\n      calldataload\n        /* \"#utility.yul\":2850:2868   */\n      0xffffffffffffffff\n        /* \"#utility.yul\":2842:2848   */\n      dup2\n        /* \"#utility.yul\":2839:2869   */\n      gt\n        /* \"#utility.yul\":2836:2953   */\n      iszero\n      tag_193\n      jumpi\n        /* \"#utility.yul\":2872:2951   */\n      tag_194\n      tag_133\n      jump\t// in\n    tag_194:\n        /* \"#utility.yul\":2836:2953   */\n    tag_193:\n        /* \"#utility.yul\":2977:3040   */\n      tag_195\n        /* \"#utility.yul\":3032:3039   */\n      dup5\n        /* \"#utility.yul\":3023:3029   */\n      dup3\n        /* \"#utility.yul\":3012:3021   */\n      dup6\n        /* \"#utility.yul\":3008:3030   */\n      add\n        /* \"#utility.yul\":2977:3040   */\n      tag_143\n      jump\t// in\n    tag_195:\n        /* \"#utility.yul\":2967:3040   */\n      swap2\n      pop\n        /* \"#utility.yul\":2763:3050   */\n      pop\n        /* \"#utility.yul\":2548:3057   */\n      swap3\n      swap2\n      pop\n      pop\n      jump\t// out\n        /* \"#utility.yul\":3063:3189   */\n    tag_144:\n        /* \"#utility.yul\":3100:3107   */\n      0x00\n        /* \"#utility.yul\":3140:3182   */\n      0xffffffffffffffffffffffffffffffffffffffff\n        /* \"#utility.yul\":3133:3138   */\n      dup3\n        /* \"#utility.yul\":3129:3183   */\n      and\n        /* \"#utility.yul\":3118:3183   */\n      swap1\n      pop\n        /* \"#utility.yul\":3063:3189   */\n      swap2\n      swap1\n      pop\n      jump\t// out\n        /* \"#utility.yul\":3195:3291   */\n    tag_145:\n        /* \"#utility.yul\":3232:3239   */\n      0x00\n        /* \"#utility.yul\":3261:3285   */\n      tag_198\n        /* \"#utility.yul\":3279:3284   */\n      dup3\n        /* \"#utility.yul\":3261:3285   */\n      tag_144\n      jump\t// in\n    tag_198:\n        /* \"#utility.yul\":3250:3285   */\n      swap1\n      pop\n        /* \"#utility.yul\":3195:3291   */\n      swap2\n      swap1\n      pop\n      jump\t// out\n        /* \"#utility.yul\":3297:3419   */\n    tag_146:\n        /* \"#utility.yul\":3370:3394   */\n      tag_200\n        /* \"#utility.yul\":3388:3393   */\n      dup2\n        /* \"#utility.yul\":3370:3394   */\n      tag_145\n      jump\t// in\n    tag_200:\n        /* \"#utility.yul\":3363:3368   */\n      dup2\n        /* \"#utility.yul\":3360:3395   */\n      eq\n        /* \"#utility.yul\":3350:3413   */\n      tag_201\n      jumpi\n        /* \"#utility.yul\":3409:3410   */\n      0x00\n        /* \"#utility.yul\":3406:3407   */\n      dup1\n        /* \"#utility.yul\":3399:3411   */\n      revert\n        /* \"#utility.yul\":3350:3413   */\n    tag_201:\n        /* \"#utility.yul\":3297:3419   */\n      pop\n      jump\t// out\n        /* \"#utility.yul\":3425:3564   */\n    tag_147:\n        /* \"#utility.yul\":3471:3476   */\n      0x00\n        /* \"#utility.yul\":3509:3515   */\n      dup2\n        /* \"#utility.yul\":3496:3516   */\n      calldataload\n        /* \"#utility.yul\":3487:3516   */\n      swap1\n      pop\n        /* \"#utility.yul\":3525:3558   */\n      tag_203\n        /* \"#utility.yul\":3552:3557   */\n      dup2\n        /* \"#utility.yul\":3525:3558   */\n      tag_146\n      jump\t// in\n    tag_203:\n        /* \"#utility.yul\":3425:3564   */\n      swap3\n      swap2\n      pop\n      pop\n      jump\t// out\n        /* \"#utility.yul\":3570:3899   */\n    tag_20:\n        /* \"#utility.yul\":3629:3635   */\n      0x00\n        /* \"#utility.yul\":3678:3680   */\n      0x20\n        /* \"#utility.yul\":3666:3675   */\n      dup3\n        /* \"#utility.yul\":3657:3664   */\n      dup5\n        /* \"#utility.yul\":3653:3676   */\n      sub\n        /* \"#utility.yul\":3649:3681   */\n      slt\n        /* \"#utility.yul\":3646:3765   */\n      iszero\n      tag_205\n      jumpi\n        /* \"#utility.yul\":3684:3763   */\n      tag_206\n      tag_132\n      jump\t// in\n    tag_206:\n        /* \"#utility.yul\":3646:3765   */\n    tag_205:\n        /* \"#utility.yul\":3804:3805   */\n      0x00\n        /* \"#utility.yul\":3829:3882   */\n      tag_207\n        /* \"#utility.yul\":3874:3881   */\n      dup5\n        /* \"#utility.yul\":3865:3871   */\n      dup3\n        /* \"#utility.yul\":3854:3863   */\n      dup6\n        /* \"#utility.yul\":3850:3872   */\n      add\n        /* \"#utility.yul\":3829:3882   */\n      tag_147\n      jump\t// in\n    tag_207:\n        /* \"#utility.yul\":3819:3882   */\n      swap2\n      pop\n        /* \"#utility.yul\":3775:3892   */\n      pop\n        /* \"#utility.yul\":3570:3899   */\n      swap3\n      swap2\n      pop\n      pop\n      jump\t// out\n        /* \"#utility.yul\":3905:4004   */\n    tag_148:\n        /* \"#utility.yul\":3957:3963   */\n      0x00\n        /* \"#utility.yul\":3991:3996   */\n      dup2\n        /* \"#utility.yul\":3985:3997   */\n      mload\n        /* \"#utility.yul\":3975:3997   */\n      swap1\n      pop\n        /* \"#utility.yul\":3905:4004   */\n      swap2\n      swap1\n      pop\n      jump\t// out\n        /* \"#utility.yul\":4010:4179   */\n    tag_149:\n        /* \"#utility.yul\":4094:4105   */\n      0x00\n        /* \"#utility.yul\":4128:4134   */\n      dup3\n        /* \"#utility.yul\":4123:4126   */\n      dup3\n        /* \"#utility.yul\":4116:4135   */\n      mstore\n        /* \"#utility.yul\":4168:4172   */\n      0x20\n        /* \"#utility.yul\":4163:4166   */\n      dup3\n        /* \"#utility.yul\":4159:4173   */\n      add\n        /* \"#utility.yul\":4144:4173   */\n      swap1\n      pop\n        /* \"#utility.yul\":4010:4179   */\n      swap3\n      swap2\n      pop\n      pop\n      jump\t// out\n        /* \"#utility.yul\":4185:4492   */\n    tag_150:\n        /* \"#utility.yul\":4253:4254   */\n      0x00\n        /* \"#utility.yul\":4263:4376   */\n    tag_211:\n        /* \"#utility.yul\":4277:4283   */\n      dup4\n        /* \"#utility.yul\":4274:4275   */\n      dup2\n        /* \"#utility.yul\":4271:4284   */\n      lt\n        /* \"#utility.yul\":4263:4376   */\n      iszero\n      tag_213\n      jumpi\n        /* \"#utility.yul\":4362:4363   */\n      dup1\n        /* \"#utility.yul\":4357:4360   */\n      dup3\n        /* \"#utility.yul\":4353:4364   */\n      add\n        /* \"#utility.yul\":4347:4365   */\n      mload\n        /* \"#utility.yul\":4343:4344   */\n      dup2\n        /* \"#utility.yul\":4338:4341   */\n      dup5\n        /* \"#utility.yul\":4334:4345   */\n      add\n        /* \"#utility.yul\":4327:4366   */\n      mstore\n        /* \"#utility.yul\":4299:4301   */\n      0x20\n        /* \"#utility.yul\":4296:4297   */\n      dup2\n        /* \"#utility.yul\":4292:4302   */\n      add\n        /* \"#utility.yul\":4287:4302   */\n      swap1\n      pop\n        /* \"#utility.yul\":4263:4376   */\n      jump(tag_211)\n    tag_213:\n        /* \"#utility.yul\":4394:4400   */\n      dup4\n        /* \"#utility.yul\":4391:4392   */\n      dup2\n        /* \"#utility.yul\":4388:4401   */\n      gt\n        /* \"#utility.yul\":4385:4486   */\n      iszero\n      tag_214\n      jumpi\n        /* \"#utility.yul\":4474:4475   */\n      0x00\n        /* \"#utility.yul\":4465:4471   */\n      dup5\n        /* \"#utility.yul\":4460:4463   */\n      dup5\n        /* \"#utility.yul\":4456:4472   */\n      add\n        /* \"#utility.yul\":4449:4476   */\n      mstore\n        /* \"#utility.yul\":4385:4486   */\n    tag_214:\n        /* \"#utility.yul\":4234:4492   */\n      pop\n        /* \"#utility.yul\":4185:4492   */\n      pop\n      pop\n      pop\n      jump\t// out\n        /* \"#utility.yul\":4498:4862   */\n    tag_151:\n        /* \"#utility.yul\":4586:4589   */\n      0x00\n        /* \"#utility.yul\":4614:4653   */\n      tag_216\n        /* \"#utility.yul\":4647:4652   */\n      dup3\n        /* \"#utility.yul\":4614:4653   */\n      tag_148\n      jump\t// in\n    tag_216:\n        /* \"#utility.yul\":4669:4740   */\n      tag_217\n        /* \"#utility.yul\":4733:4739   */\n      dup2\n        /* \"#utility.yul\":4728:4731   */\n      dup6\n        /* \"#utility.yul\":4669:4740   */\n      tag_149\n      jump\t// in\n    tag_217:\n        /* \"#utility.yul\":4662:4740   */\n      swap4\n      pop\n        /* \"#utility.yul\":4749:4801   */\n      tag_218\n        /* \"#utility.yul\":4794:4800   */\n      dup2\n        /* \"#utility.yul\":4789:4792   */\n      dup6\n        /* \"#utility.yul\":4782:4786   */\n      0x20\n        /* \"#utility.yul\":4775:4780   */\n      dup7\n        /* \"#utility.yul\":4771:4787   */\n      add\n        /* \"#utility.yul\":4749:4801   */\n      tag_150\n      jump\t// in\n    tag_218:\n        /* \"#utility.yul\":4826:4855   */\n      tag_219\n        /* \"#utility.yul\":4848:4854   */\n      dup2\n        /* \"#utility.yul\":4826:4855   */\n      tag_136\n      jump\t// in\n    tag_219:\n        /* \"#utility.yul\":4821:4824   */\n      dup5\n        /* \"#utility.yul\":4817:4856   */\n      add\n        /* \"#utility.yul\":4810:4856   */\n      swap2\n      pop\n        /* \"#utility.yul\":4590:4862   */\n      pop\n        /* \"#utility.yul\":4498:4862   */\n      swap3\n      swap2\n      pop\n      pop\n      jump\t// out\n        /* \"#utility.yul\":4868:5382   */\n    tag_23:\n        /* \"#utility.yul\":5029:5033   */\n      0x00\n        /* \"#utility.yul\":5067:5069   */\n      0x40\n        /* \"#utility.yul\":5056:5065   */\n      dup3\n        /* \"#utility.yul\":5052:5070   */\n      add\n        /* \"#utility.yul\":5044:5070   */\n      swap1\n      pop\n        /* \"#utility.yul\":5116:5125   */\n      dup2\n        /* \"#utility.yul\":5110:5114   */\n      dup2\n        /* \"#utility.yul\":5106:5126   */\n      sub\n        /* \"#utility.yul\":5102:5103   */\n      0x00\n        /* \"#utility.yul\":5091:5100   */\n      dup4\n        /* \"#utility.yul\":5087:5104   */\n      add\n        /* \"#utility.yul\":5080:5127   */\n      mstore\n        /* \"#utility.yul\":5144:5222   */\n      tag_221\n        /* \"#utility.yul\":5217:5221   */\n      dup2\n        /* \"#utility.yul\":5208:5214   */\n      dup6\n        /* \"#utility.yul\":5144:5222   */\n      tag_151\n      jump\t// in\n    tag_221:\n        /* \"#utility.yul\":5136:5222   */\n      swap1\n      pop\n        /* \"#utility.yul\":5269:5278   */\n      dup2\n        /* \"#utility.yul\":5263:5267   */\n      dup2\n        /* \"#utility.yul\":5259:5279   */\n      sub\n        /* \"#utility.yul\":5254:5256   */\n      0x20\n        /* \"#utility.yul\":5243:5252   */\n      dup4\n        /* \"#utility.yul\":5239:5257   */\n      add\n        /* \"#utility.yul\":5232:5280   */\n      mstore\n        /* \"#utility.yul\":5297:5375   */\n      tag_222\n        /* \"#utility.yul\":5370:5374   */\n      dup2\n        /* \"#utility.yul\":5361:5367   */\n      dup5\n        /* \"#utility.yul\":5297:5375   */\n      tag_151\n      jump\t// in\n    tag_222:\n        /* \"#utility.yul\":5289:5375   */\n      swap1\n      pop\n        /* \"#utility.yul\":4868:5382   */\n      swap4\n      swap3\n      pop\n      pop\n      pop\n      jump\t// out\n        /* \"#utility.yul\":5388:5465   */\n    tag_152:\n        /* \"#utility.yul\":5425:5432   */\n      0x00\n        /* \"#utility.yul\":5454:5459   */\n      dup2\n        /* \"#utility.yul\":5443:5459   */\n      swap1\n      pop\n        /* \"#utility.yul\":5388:5465   */\n      swap2\n      swap1\n      pop\n      jump\t// out\n        /* \"#utility.yul\":5471:5593   */\n    tag_153:\n        /* \"#utility.yul\":5544:5568   */\n      tag_225\n        /* \"#utility.yul\":5562:5567   */\n      dup2\n        /* \"#utility.yul\":5544:5568   */\n      tag_152\n      jump\t// in\n    tag_225:\n        /* \"#utility.yul\":5537:5542   */\n      dup2\n        /* \"#utility.yul\":5534:5569   */\n      eq\n        /* \"#utility.yul\":5524:5587   */\n      tag_226\n      jumpi\n        /* \"#utility.yul\":5583:5584   */\n      0x00\n        /* \"#utility.yul\":5580:5581   */\n      dup1\n        /* \"#utility.yul\":5573:5585   */\n      revert\n        /* \"#utility.yul\":5524:5587   */\n    tag_226:\n        /* \"#utility.yul\":5471:5593   */\n      pop\n      jump\t// out\n        /* \"#utility.yul\":5599:5738   */\n    tag_154:\n        /* \"#utility.yul\":5645:5650   */\n      0x00\n        /* \"#utility.yul\":5683:5689   */\n      dup2\n        /* \"#utility.yul\":5670:5690   */\n      calldataload\n        /* \"#utility.yul\":5661:5690   */\n      swap1\n      pop\n        /* \"#utility.yul\":5699:5732   */\n      tag_228\n        /* \"#utility.yul\":5726:5731   */\n      dup2\n        /* \"#utility.yul\":5699:5732   */\n      tag_153\n      jump\t// in\n    tag_228:\n        /* \"#utility.yul\":5599:5738   */\n      swap3\n      swap2\n      pop\n      pop\n      jump\t// out\n        /* \"#utility.yul\":5744:6073   */\n    tag_26:\n        /* \"#utility.yul\":5803:5809   */\n      0x00\n        /* \"#utility.yul\":5852:5854   */\n      0x20\n        /* \"#utility.yul\":5840:5849   */\n      dup3\n        /* \"#utility.yul\":5831:5838   */\n      dup5\n        /* \"#utility.yul\":5827:5850   */\n      sub\n        /* \"#utility.yul\":5823:5855   */\n      slt\n        /* \"#utility.yul\":5820:5939   */\n      iszero\n      tag_230\n      jumpi\n        /* \"#utility.yul\":5858:5937   */\n      tag_231\n      tag_132\n      jump\t// in\n    tag_231:\n        /* \"#utility.yul\":5820:5939   */\n    tag_230:\n        /* \"#utility.yul\":5978:5979   */\n      0x00\n        /* \"#utility.yul\":6003:6056   */\n      tag_232\n        /* \"#utility.yul\":6048:6055   */\n      dup5\n        /* \"#utility.yul\":6039:6045   */\n      dup3\n        /* \"#utility.yul\":6028:6037   */\n      dup6\n        /* \"#utility.yul\":6024:6046   */\n      add\n        /* \"#utility.yul\":6003:6056   */\n      tag_154\n      jump\t// in\n    tag_232:\n        /* \"#utility.yul\":5993:6056   */\n      swap2\n      pop\n        /* \"#utility.yul\":5949:6066   */\n      pop\n        /* \"#utility.yul\":5744:6073   */\n      swap3\n      swap2\n      pop\n      pop\n      jump\t// out\n        /* \"#utility.yul\":6079:6197   */\n    tag_155:\n        /* \"#utility.yul\":6166:6190   */\n      tag_234\n        /* \"#utility.yul\":6184:6189   */\n      dup2\n        /* \"#utility.yul\":6166:6190   */\n      tag_145\n      jump\t// in\n    tag_234:\n        /* \"#utility.yul\":6161:6164   */\n      dup3\n        /* \"#utility.yul\":6154:6191   */\n      mstore\n        /* \"#utility.yul\":6079:6197   */\n      pop\n      pop\n      jump\t// out\n        /* \"#utility.yul\":6203:6425   */\n    tag_29:\n        /* \"#utility.yul\":6296:6300   */\n      0x00\n        /* \"#utility.yul\":6334:6336   */\n      0x20\n        /* \"#utility.yul\":6323:6332   */\n      dup3\n        /* \"#utility.yul\":6319:6337   */\n      add\n        /* \"#utility.yul\":6311:6337   */\n      swap1\n      pop\n        /* \"#utility.yul\":6347:6418   */\n      tag_236\n        /* \"#utility.yul\":6415:6416   */\n      0x00\n        /* \"#utility.yul\":6404:6413   */\n      dup4\n        /* \"#utility.yul\":6400:6417   */\n      add\n        /* \"#utility.yul\":6391:6397   */\n      dup5\n        /* \"#utility.yul\":6347:6418   */\n      tag_155\n      jump\t// in\n    tag_236:\n        /* \"#utility.yul\":6203:6425   */\n      swap3\n      swap2\n      pop\n      pop\n      jump\t// out\n        /* \"#utility.yul\":6431:6549   */\n    tag_156:\n        /* \"#utility.yul\":6518:6542   */\n      tag_238\n        /* \"#utility.yul\":6536:6541   */\n      dup2\n        /* \"#utility.yul\":6518:6542   */\n      tag_152\n      jump\t// in\n    tag_238:\n        /* \"#utility.yul\":6513:6516   */\n      dup3\n        /* \"#utility.yul\":6506:6543   */\n      mstore\n        /* \"#utility.yul\":6431:6549   */\n      pop\n      pop\n      jump\t// out\n        /* \"#utility.yul\":6555:6777   */\n    tag_34:\n        /* \"#utility.yul\":6648:6652   */\n      0x00\n        /* \"#utility.yul\":6686:6688   */\n      0x20\n        /* \"#utility.yul\":6675:6684   */\n      dup3\n        /* \"#utility.yul\":6671:6689   */\n      add\n        /* \"#utility.yul\":6663:6689   */\n      swap1\n      pop\n        /* \"#utility.yul\":6699:6770   */\n      tag_240\n        /* \"#utility.yul\":6767:6768   */\n      0x00\n        /* \"#utility.yul\":6756:6765   */\n      dup4\n        /* \"#utility.yul\":6752:6769   */\n      add\n        /* \"#utility.yul\":6743:6749   */\n      dup5\n        /* \"#utility.yul\":6699:6770   */\n      tag_156\n      jump\t// in\n    tag_240:\n        /* \"#utility.yul\":6555:6777   */\n      swap3\n      swap2\n      pop\n      pop\n      jump\t// out\n        /* \"#utility.yul\":6783:7617   */\n    tag_40:\n        /* \"#utility.yul\":6871:6877   */\n      0x00\n        /* \"#utility.yul\":6879:6885   */\n      dup1\n        /* \"#utility.yul\":6928:6930   */\n      0x40\n        /* \"#utility.yul\":6916:6925   */\n      dup4\n        /* \"#utility.yul\":6907:6914   */\n      dup6\n        /* \"#utility.yul\":6903:6926   */\n      sub\n        /* \"#utility.yul\":6899:6931   */\n      slt\n        /* \"#utility.yul\":6896:7015   */\n      iszero\n      tag_242\n      jumpi\n        /* \"#utility.yul\":6934:7013   */\n      tag_243\n      tag_132\n      jump\t// in\n    tag_243:\n        /* \"#utility.yul\":6896:7015   */\n    tag_242:\n        /* \"#utility.yul\":7082:7083   */\n      0x00\n        /* \"#utility.yul\":7071:7080   */\n      dup4\n        /* \"#utility.yul\":7067:7084   */\n      add\n        /* \"#utility.yul\":7054:7085   */\n      calldataload\n        /* \"#utility.yul\":7112:7130   */\n      0xffffffffffffffff\n        /* \"#utility.yul\":7104:7110   */\n      dup2\n        /* \"#utility.yul\":7101:7131   */\n      gt\n        /* \"#utility.yul\":7098:7215   */\n      iszero\n      tag_244\n      jumpi\n        /* \"#utility.yul\":7134:7213   */\n      tag_245\n      tag_133\n      jump\t// in\n    tag_245:\n        /* \"#utility.yul\":7098:7215   */\n    tag_244:\n        /* \"#utility.yul\":7239:7302   */\n      tag_246\n        /* \"#utility.yul\":7294:7301   */\n      dup6\n        /* \"#utility.yul\":7285:7291   */\n      dup3\n        /* \"#utility.yul\":7274:7283   */\n      dup7\n        /* \"#utility.yul\":7270:7292   */\n      add\n        /* \"#utility.yul\":7239:7302   */\n      tag_143\n      jump\t// in\n    tag_246:\n        /* \"#utility.yul\":7229:7302   */\n      swap3\n      pop\n        /* \"#utility.yul\":7025:7312   */\n      pop\n        /* \"#utility.yul\":7379:7381   */\n      0x20\n        /* \"#utility.yul\":7368:7377   */\n      dup4\n        /* \"#utility.yul\":7364:7382   */\n      add\n        /* \"#utility.yul\":7351:7383   */\n      calldataload\n        /* \"#utility.yul\":7410:7428   */\n      0xffffffffffffffff\n        /* \"#utility.yul\":7402:7408   */\n      dup2\n        /* \"#utility.yul\":7399:7429   */\n      gt\n        /* \"#utility.yul\":7396:7513   */\n      iszero\n      tag_247\n      jumpi\n        /* \"#utility.yul\":7432:7511   */\n      tag_248\n      tag_133\n      jump\t// in\n    tag_248:\n        /* \"#utility.yul\":7396:7513   */\n    tag_247:\n        /* \"#utility.yul\":7537:7600   */\n      tag_249\n        /* \"#utility.yul\":7592:7599   */\n      dup6\n        /* \"#utility.yul\":7583:7589   */\n      dup3\n        /* \"#utility.yul\":7572:7581   */\n      dup7\n        /* \"#utility.yul\":7568:7590   */\n      add\n        /* \"#utility.yul\":7537:7600   */\n      tag_143\n      jump\t// in\n    tag_249:\n        /* \"#utility.yul\":7527:7600   */\n      swap2\n      pop\n        /* \"#utility.yul\":7322:7610   */\n      pop\n        /* \"#utility.yul\":6783:7617   */\n      swap3\n      pop\n      swap3\n      swap1\n      pop\n      jump\t// out\n        /* \"#utility.yul\":7623:8247   */\n    tag_46:\n        /* \"#utility.yul\":7812:7816   */\n      0x00\n        /* \"#utility.yul\":7850:7852   */\n      0x60\n        /* \"#utility.yul\":7839:7848   */\n      dup3\n        /* \"#utility.yul\":7835:7853   */\n      add\n        /* \"#utility.yul\":7827:7853   */\n      swap1\n      pop\n        /* \"#utility.yul\":7863:7934   */\n      tag_251\n        /* \"#utility.yul\":7931:7932   */\n      0x00\n        /* \"#utility.yul\":7920:7929   */\n      dup4\n        /* \"#utility.yul\":7916:7933   */\n      add\n        /* \"#utility.yul\":7907:7913   */\n      dup7\n        /* \"#utility.yul\":7863:7934   */\n      tag_155\n      jump\t// in\n    tag_251:\n        /* \"#utility.yul\":7981:7990   */\n      dup2\n        /* \"#utility.yul\":7975:7979   */\n      dup2\n        /* \"#utility.yul\":7971:7991   */\n      sub\n        /* \"#utility.yul\":7966:7968   */\n      0x20\n        /* \"#utility.yul\":7955:7964   */\n      dup4\n        /* \"#utility.yul\":7951:7969   */\n      add\n        /* \"#utility.yul\":7944:7992   */\n      mstore\n        /* \"#utility.yul\":8009:8087   */\n      tag_252\n        /* \"#utility.yul\":8082:8086   */\n      dup2\n        /* \"#utility.yul\":8073:8079   */\n      dup6\n        /* \"#utility.yul\":8009:8087   */\n      tag_151\n      jump\t// in\n    tag_252:\n        /* \"#utility.yul\":8001:8087   */\n      swap1\n      pop\n        /* \"#utility.yul\":8134:8143   */\n      dup2\n        /* \"#utility.yul\":8128:8132   */\n      dup2\n        /* \"#utility.yul\":8124:8144   */\n      sub\n        /* \"#utility.yul\":8119:8121   */\n      0x40\n        /* \"#utility.yul\":8108:8117   */\n      dup4\n        /* \"#utility.yul\":8104:8122   */\n      add\n        /* \"#utility.yul\":8097:8145   */\n      mstore\n        /* \"#utility.yul\":8162:8240   */\n      tag_253\n        /* \"#utility.yul\":8235:8239   */\n      dup2\n        /* \"#utility.yul\":8226:8232   */\n      dup5\n        /* \"#utility.yul\":8162:8240   */\n      tag_151\n      jump\t// in\n    tag_253:\n        /* \"#utility.yul\":8154:8240   */\n      swap1\n      pop\n        /* \"#utility.yul\":7623:8247   */\n      swap5\n      swap4\n      pop\n      pop\n      pop\n      pop\n      jump\t// out\n        /* \"#utility.yul\":8253:8433   */\n    tag_51:\n        /* \"#utility.yul\":8301:8378   */\n      0x4e487b7100000000000000000000000000000000000000000000000000000000\n        /* \"#utility.yul\":8298:8299   */\n      0x00\n        /* \"#utility.yul\":8291:8379   */\n      mstore\n        /* \"#utility.yul\":8398:8402   */\n      0x32\n        /* \"#utility.yul\":8395:8396   */\n      0x04\n        /* \"#utility.yul\":8388:8403   */\n      mstore\n        /* \"#utility.yul\":8422:8426   */\n      0x24\n        /* \"#utility.yul\":8419:8420   */\n      0x00\n        /* \"#utility.yul\":8412:8427   */\n      revert\n        /* \"#utility.yul\":8439:8619   */\n    tag_157:\n        /* \"#utility.yul\":8487:8564   */\n      0x4e487b7100000000000000000000000000000000000000000000000000000000\n        /* \"#utility.yul\":8484:8485   */\n      0x00\n        /* \"#utility.yul\":8477:8565   */\n      mstore\n        /* \"#utility.yul\":8584:8588   */\n      0x22\n        /* \"#utility.yul\":8581:8582   */\n      0x04\n        /* \"#utility.yul\":8574:8589   */\n      mstore\n        /* \"#utility.yul\":8608:8612   */\n      0x24\n        /* \"#utility.yul\":8605:8606   */\n      0x00\n        /* \"#utility.yul\":8598:8613   */\n      revert\n        /* \"#utility.yul\":8625:8945   */\n    tag_77:\n        /* \"#utility.yul\":8669:8675   */\n      0x00\n        /* \"#utility.yul\":8706:8707   */\n      0x02\n        /* \"#utility.yul\":8700:8704   */\n      dup3\n        /* \"#utility.yul\":8696:8708   */\n      div\n        /* \"#utility.yul\":8686:8708   */\n      swap1\n      pop\n        /* \"#utility.yul\":8753:8754   */\n      0x01\n        /* \"#utility.yul\":8747:8751   */\n      dup3\n        /* \"#utility.yul\":8743:8755   */\n      and\n        /* \"#utility.yul\":8774:8792   */\n      dup1\n        /* \"#utility.yul\":8764:8845   */\n      tag_257\n      jumpi\n        /* \"#utility.yul\":8830:8834   */\n      0x7f\n        /* \"#utility.yul\":8822:8828   */\n      dup3\n        /* \"#utility.yul\":8818:8835   */\n      and\n        /* \"#utility.yul\":8808:8835   */\n      swap2\n      pop\n        /* \"#utility.yul\":8764:8845   */\n    tag_257:\n        /* \"#utility.yul\":8892:8894   */\n      0x20\n        /* \"#utility.yul\":8884:8890   */\n      dup3\n        /* \"#utility.yul\":8881:8895   */\n      lt\n        /* \"#utility.yul\":8861:8879   */\n      dup2\n        /* \"#utility.yul\":8858:8896   */\n      eq\n        /* \"#utility.yul\":8855:8939   */\n      iszero\n      tag_258\n      jumpi\n        /* \"#utility.yul\":8911:8929   */\n      tag_259\n      tag_157\n      jump\t// in\n    tag_259:\n        /* \"#utility.yul\":8855:8939   */\n    tag_258:\n        /* \"#utility.yul\":8676:8945   */\n      pop\n        /* \"#utility.yul\":8625:8945   */\n      swap2\n      swap1\n      pop\n      jump\t// out\n        /* \"#utility.yul\":8951:9092   */\n    tag_158:\n        /* \"#utility.yul\":9000:9004   */\n      0x00\n        /* \"#utility.yul\":9023:9026   */\n      dup2\n        /* \"#utility.yul\":9015:9026   */\n      swap1\n      pop\n        /* \"#utility.yul\":9046:9049   */\n      dup2\n        /* \"#utility.yul\":9043:9044   */\n      0x00\n        /* \"#utility.yul\":9036:9050   */\n      mstore\n        /* \"#utility.yul\":9080:9084   */\n      0x20\n        /* \"#utility.yul\":9077:9078   */\n      0x00\n        /* \"#utility.yul\":9067:9085   */\n      keccak256\n        /* \"#utility.yul\":9059:9085   */\n      swap1\n      pop\n        /* \"#utility.yul\":8951:9092   */\n      swap2\n      swap1\n      pop\n      jump\t// out\n        /* \"#utility.yul\":9122:9924   */\n    tag_159:\n        /* \"#utility.yul\":9207:9210   */\n      0x00\n        /* \"#utility.yul\":9244:9249   */\n      dup2\n        /* \"#utility.yul\":9238:9250   */\n      sload\n        /* \"#utility.yul\":9273:9309   */\n      tag_262\n        /* \"#utility.yul\":9299:9308   */\n      dup2\n        /* \"#utility.yul\":9273:9309   */\n      tag_77\n      jump\t// in\n    tag_262:\n        /* \"#utility.yul\":9325:9396   */\n      tag_263\n        /* \"#utility.yul\":9389:9395   */\n      dup2\n        /* \"#utility.yul\":9384:9387   */\n      dup7\n        /* \"#utility.yul\":9325:9396   */\n      tag_149\n      jump\t// in\n    tag_263:\n        /* \"#utility.yul\":9318:9396   */\n      swap5\n      pop\n        /* \"#utility.yul\":9427:9428   */\n      0x01\n        /* \"#utility.yul\":9416:9425   */\n      dup3\n        /* \"#utility.yul\":9412:9429   */\n      and\n        /* \"#utility.yul\":9443:9444   */\n      0x00\n        /* \"#utility.yul\":9438:9573   */\n      dup2\n      eq\n      tag_265\n      jumpi\n        /* \"#utility.yul\":9587:9588   */\n      0x01\n        /* \"#utility.yul\":9582:9918   */\n      dup2\n      eq\n      tag_266\n      jumpi\n        /* \"#utility.yul\":9405:9918   */\n      jump(tag_264)\n        /* \"#utility.yul\":9438:9573   */\n    tag_265:\n        /* \"#utility.yul\":9522:9526   */\n      0xff\n        /* \"#utility.yul\":9518:9527   */\n      not\n        /* \"#utility.yul\":9507:9516   */\n      dup4\n        /* \"#utility.yul\":9503:9528   */\n      and\n        /* \"#utility.yul\":9498:9501   */\n      dup7\n        /* \"#utility.yul\":9491:9529   */\n      mstore\n        /* \"#utility.yul\":9558:9562   */\n      0x20\n        /* \"#utility.yul\":9553:9556   */\n      dup7\n        /* \"#utility.yul\":9549:9563   */\n      add\n        /* \"#utility.yul\":9542:9563   */\n      swap4\n      pop\n        /* \"#utility.yul\":9438:9573   */\n      jump(tag_264)\n        /* \"#utility.yul\":9582:9918   */\n    tag_266:\n        /* \"#utility.yul\":9649:9687   */\n      tag_267\n        /* \"#utility.yul\":9681:9686   */\n      dup6\n        /* \"#utility.yul\":9649:9687   */\n      tag_158\n      jump\t// in\n    tag_267:\n        /* \"#utility.yul\":9709:9710   */\n      0x00\n        /* \"#utility.yul\":9723:9877   */\n    tag_268:\n        /* \"#utility.yul\":9737:9743   */\n      dup4\n        /* \"#utility.yul\":9734:9735   */\n      dup2\n        /* \"#utility.yul\":9731:9744   */\n      lt\n        /* \"#utility.yul\":9723:9877   */\n      iszero\n      tag_270\n      jumpi\n        /* \"#utility.yul\":9811:9818   */\n      dup2\n        /* \"#utility.yul\":9805:9819   */\n      sload\n        /* \"#utility.yul\":9801:9802   */\n      dup2\n        /* \"#utility.yul\":9796:9799   */\n      dup10\n        /* \"#utility.yul\":9792:9803   */\n      add\n        /* \"#utility.yul\":9785:9820   */\n      mstore\n        /* \"#utility.yul\":9861:9862   */\n      0x01\n        /* \"#utility.yul\":9852:9859   */\n      dup3\n        /* \"#utility.yul\":9848:9863   */\n      add\n        /* \"#utility.yul\":9837:9863   */\n      swap2\n      pop\n        /* \"#utility.yul\":9759:9763   */\n      0x20\n        /* \"#utility.yul\":9756:9757   */\n      dup2\n        /* \"#utility.yul\":9752:9764   */\n      add\n        /* \"#utility.yul\":9747:9764   */\n      swap1\n      pop\n        /* \"#utility.yul\":9723:9877   */\n      jump(tag_268)\n    tag_270:\n        /* \"#utility.yul\":9906:9907   */\n      dup1\n        /* \"#utility.yul\":9901:9904   */\n      dup9\n        /* \"#utility.yul\":9897:9908   */\n      add\n        /* \"#utility.yul\":9890:9908   */\n      swap6\n      pop\n        /* \"#utility.yul\":9589:9918   */\n      pop\n      pop\n        /* \"#utility.yul\":9405:9918   */\n    tag_264:\n      pop\n        /* \"#utility.yul\":9211:9924   */\n      pop\n      pop\n        /* \"#utility.yul\":9122:9924   */\n      swap3\n      swap2\n      pop\n      pop\n      jump\t// out\n        /* \"#utility.yul\":9930:10659   */\n    tag_63:\n        /* \"#utility.yul\":10144:10148   */\n      0x00\n        /* \"#utility.yul\":10182:10185   */\n      0x80\n        /* \"#utility.yul\":10171:10180   */\n      dup3\n        /* \"#utility.yul\":10167:10186   */\n      add\n        /* \"#utility.yul\":10159:10186   */\n      swap1\n      pop\n        /* \"#utility.yul\":10196:10267   */\n      tag_272\n        /* \"#utility.yul\":10264:10265   */\n      0x00\n        /* \"#utility.yul\":10253:10262   */\n      dup4\n        /* \"#utility.yul\":10249:10266   */\n      add\n        /* \"#utility.yul\":10240:10246   */\n      dup8\n        /* \"#utility.yul\":10196:10267   */\n      tag_156\n      jump\t// in\n    tag_272:\n        /* \"#utility.yul\":10277:10349   */\n      tag_273\n        /* \"#utility.yul\":10345:10347   */\n      0x20\n        /* \"#utility.yul\":10334:10343   */\n      dup4\n        /* \"#utility.yul\":10330:10348   */\n      add\n        /* \"#utility.yul\":10321:10327   */\n      dup7\n        /* \"#utility.yul\":10277:10349   */\n      tag_155\n      jump\t// in\n    tag_273:\n        /* \"#utility.yul\":10396:10405   */\n      dup2\n        /* \"#utility.yul\":10390:10394   */\n      dup2\n        /* \"#utility.yul\":10386:10406   */\n      sub\n        /* \"#utility.yul\":10381:10383   */\n      0x40\n        /* \"#utility.yul\":10370:10379   */\n      dup4\n        /* \"#utility.yul\":10366:10384   */\n      add\n        /* \"#utility.yul\":10359:10407   */\n      mstore\n        /* \"#utility.yul\":10424:10499   */\n      tag_274\n        /* \"#utility.yul\":10494:10498   */\n      dup2\n        /* \"#utility.yul\":10485:10491   */\n      dup6\n        /* \"#utility.yul\":10424:10499   */\n      tag_159\n      jump\t// in\n    tag_274:\n        /* \"#utility.yul\":10416:10499   */\n      swap1\n      pop\n        /* \"#utility.yul\":10546:10555   */\n      dup2\n        /* \"#utility.yul\":10540:10544   */\n      dup2\n        /* \"#utility.yul\":10536:10556   */\n      sub\n        /* \"#utility.yul\":10531:10533   */\n      0x60\n        /* \"#utility.yul\":10520:10529   */\n      dup4\n        /* \"#utility.yul\":10516:10534   */\n      add\n        /* \"#utility.yul\":10509:10557   */\n      mstore\n        /* \"#utility.yul\":10574:10652   */\n      tag_275\n        /* \"#utility.yul\":10647:10651   */\n      dup2\n        /* \"#utility.yul\":10638:10644   */\n      dup5\n        /* \"#utility.yul\":10574:10652   */\n      tag_151\n      jump\t// in\n    tag_275:\n        /* \"#utility.yul\":10566:10652   */\n      swap1\n      pop\n        /* \"#utility.yul\":9930:10659   */\n      swap6\n      swap5\n      pop\n      pop\n      pop\n      pop\n      pop\n      jump\t// out\n        /* \"#utility.yul\":10665:11394   */\n    tag_101:\n        /* \"#utility.yul\":10879:10883   */\n      0x00\n        /* \"#utility.yul\":10917:10920   */\n      0x80\n        /* \"#utility.yul\":10906:10915   */\n      dup3\n        /* \"#utility.yul\":10902:10921   */\n      add\n        /* \"#utility.yul\":10894:10921   */\n      swap1\n      pop\n        /* \"#utility.yul\":10931:11002   */\n      tag_277\n        /* \"#utility.yul\":10999:11000   */\n      0x00\n        /* \"#utility.yul\":10988:10997   */\n      dup4\n        /* \"#utility.yul\":10984:11001   */\n      add\n        /* \"#utility.yul\":10975:10981   */\n      dup8\n        /* \"#utility.yul\":10931:11002   */\n      tag_156\n      jump\t// in\n    tag_277:\n        /* \"#utility.yul\":11012:11084   */\n      tag_278\n        /* \"#utility.yul\":11080:11082   */\n      0x20\n        /* \"#utility.yul\":11069:11078   */\n      dup4\n        /* \"#utility.yul\":11065:11083   */\n      add\n        /* \"#utility.yul\":11056:11062   */\n      dup7\n        /* \"#utility.yul\":11012:11084   */\n      tag_155\n      jump\t// in\n    tag_278:\n        /* \"#utility.yul\":11131:11140   */\n      dup2\n        /* \"#utility.yul\":11125:11129   */\n      dup2\n        /* \"#utility.yul\":11121:11141   */\n      sub\n        /* \"#utility.yul\":11116:11118   */\n      0x40\n        /* \"#utility.yul\":11105:11114   */\n      dup4\n        /* \"#utility.yul\":11101:11119   */\n      add\n        /* \"#utility.yul\":11094:11142   */\n      mstore\n        /* \"#utility.yul\":11159:11237   */\n      tag_279\n        /* \"#utility.yul\":11232:11236   */\n      dup2\n        /* \"#utility.yul\":11223:11229   */\n      dup6\n        /* \"#utility.yul\":11159:11237   */\n      tag_151\n      jump\t// in\n    tag_279:\n        /* \"#utility.yul\":11151:11237   */\n      swap1\n      pop\n        /* \"#utility.yul\":11284:11293   */\n      dup2\n        /* \"#utility.yul\":11278:11282   */\n      dup2\n        /* \"#utility.yul\":11274:11294   */\n      sub\n        /* \"#utility.yul\":11269:11271   */\n      0x60\n        /* \"#utility.yul\":11258:11267   */\n      dup4\n        /* \"#utility.yul\":11254:11272   */\n      add\n        /* \"#utility.yul\":11247:11295   */\n      mstore\n        /* \"#utility.yul\":11312:11387   */\n      tag_280\n        /* \"#utility.yul\":11382:11386   */\n      dup2\n        /* \"#utility.yul\":11373:11379   */\n      dup5\n        /* \"#utility.yul\":11312:11387   */\n      tag_159\n      jump\t// in\n    tag_280:\n        /* \"#utility.yul\":11304:11387   */\n      swap1\n      pop\n        /* \"#utility.yul\":10665:11394   */\n      swap6\n      swap5\n      pop\n      pop\n      pop\n      pop\n      pop\n      jump\t// out\n        /* \"#utility.yul\":11400:12135   */\n    tag_108:\n        /* \"#utility.yul\":11617:11621   */\n      0x00\n        /* \"#utility.yul\":11655:11658   */\n      0x80\n        /* \"#utility.yul\":11644:11653   */\n      dup3\n        /* \"#utility.yul\":11640:11659   */\n      add\n        /* \"#utility.yul\":11632:11659   */\n      swap1\n      pop\n        /* \"#utility.yul\":11669:11740   */\n      tag_282\n        /* \"#utility.yul\":11737:11738   */\n      0x00\n        /* \"#utility.yul\":11726:11735   */\n      dup4\n        /* \"#utility.yul\":11722:11739   */\n      add\n        /* \"#utility.yul\":11713:11719   */\n      dup8\n        /* \"#utility.yul\":11669:11740   */\n      tag_156\n      jump\t// in\n    tag_282:\n        /* \"#utility.yul\":11750:11822   */\n      tag_283\n        /* \"#utility.yul\":11818:11820   */\n      0x20\n        /* \"#utility.yul\":11807:11816   */\n      dup4\n        /* \"#utility.yul\":11803:11821   */\n      add\n        /* \"#utility.yul\":11794:11800   */\n      dup7\n        /* \"#utility.yul\":11750:11822   */\n      tag_155\n      jump\t// in\n    tag_283:\n        /* \"#utility.yul\":11869:11878   */\n      dup2\n        /* \"#utility.yul\":11863:11867   */\n      dup2\n        /* \"#utility.yul\":11859:11879   */\n      sub\n        /* \"#utility.yul\":11854:11856   */\n      0x40\n        /* \"#utility.yul\":11843:11852   */\n      dup4\n        /* \"#utility.yul\":11839:11857   */\n      add\n        /* \"#utility.yul\":11832:11880   */\n      mstore\n        /* \"#utility.yul\":11897:11975   */\n      tag_284\n        /* \"#utility.yul\":11970:11974   */\n      dup2\n        /* \"#utility.yul\":11961:11967   */\n      dup6\n        /* \"#utility.yul\":11897:11975   */\n      tag_151\n      jump\t// in\n    tag_284:\n        /* \"#utility.yul\":11889:11975   */\n      swap1\n      pop\n        /* \"#utility.yul\":12022:12031   */\n      dup2\n        /* \"#utility.yul\":12016:12020   */\n      dup2\n        /* \"#utility.yul\":12012:12032   */\n      sub\n        /* \"#utility.yul\":12007:12009   */\n      0x60\n        /* \"#utility.yul\":11996:12005   */\n      dup4\n        /* \"#utility.yul\":11992:12010   */\n      add\n        /* \"#utility.yul\":11985:12033   */\n      mstore\n        /* \"#utility.yul\":12050:12128   */\n      tag_285\n        /* \"#utility.yul\":12123:12127   */\n      dup2\n        /* \"#utility.yul\":12114:12120   */\n      dup5\n        /* \"#utility.yul\":12050:12128   */\n      tag_151\n      jump\t// in\n    tag_285:\n        /* \"#utility.yul\":12042:12128   */\n      swap1\n      pop\n        /* \"#utility.yul\":11400:12135   */\n      swap6\n      swap5\n      pop\n      pop\n      pop\n      pop\n      pop\n      jump\t// out\n\n    auxdata: 0xa26469706673582212202fbb719adbe9ec16da30d8b2fa10e1850cf7698c4be5039e913094d3a4aba53164736f6c634300080a0033\n}\n",
				"bytecode": {
					"linkReferences": {},
					"object": "608060405234801561001057600080fd5b506113e9806100206000396000f3fe608060405234801561001057600080fd5b50600436106100875760003560e01c8063a5ac36341161005b578063a5ac363414610113578063b18588fb14610143578063cdb3344a1461015f578063d5ce24ed1461017b57610087565b806281d6e51461008c5780631d4f2c6d146100a8578063359c1f72146100b257806388d0d391146100e3575b600080fd5b6100a660048036038101906100a19190610e8e565b6101ad565b005b6100b0610399565b005b6100cc60048036038101906100c79190610f35565b610531565b6040516100da929190610fea565b60405180910390f35b6100fd60048036038101906100f89190611057565b6106e4565b60405161010a9190611093565b60405180910390f35b61012d60048036038101906101289190610f35565b610717565b60405161013a91906110bd565b60405180910390f35b61015d60048036038101906101589190610e8e565b61072f565b005b610179600480360381019061017491906110d8565b61091b565b005b61019560048036038101906101909190611057565b610b27565b6040516101a493929190611150565b60405180910390f35b6000600260003373ffffffffffffffffffffffffffffffffffffffff1673ffffffffffffffffffffffffffffffffffffffff1681526020019081526020016000205414156101fa57600080fd5b6000600260003373ffffffffffffffffffffffffffffffffffffffff1673ffffffffffffffffffffffffffffffffffffffff168152602001908152602001600020548154811061024d5761024c611195565b5b906000526020600020906003020160000160009054906101000a900473ffffffffffffffffffffffffffffffffffffffff1673ffffffffffffffffffffffffffffffffffffffff163373ffffffffffffffffffffffffffffffffffffffff16146102b657600080fd5b6000600260003373ffffffffffffffffffffffffffffffffffffffff1673ffffffffffffffffffffffffffffffffffffffff168152602001908152602001600020549050816000828154811061030f5761030e611195565b5b90600052602060002090600302016002019080519060200190610333929190610c91565b507f76571b7a897a1509c641587568218a290018fbdc8b9a724f17b77ff0eec22c0c81336000848154811061036b5761036a611195565b5b90600052602060002090600302016001018560405161038d94939291906112ba565b60405180910390a15050565b738d3e809fbd258083a5ba004a527159da535c8aba73ffffffffffffffffffffffffffffffffffffffff163373ffffffffffffffffffffffffffffffffffffffff16146103e557600080fd5b60006040518060600160405280600073ffffffffffffffffffffffffffffffffffffffff1681526020016040518060400160405280600181526020017f200000000000000000000000000000000000000000000000000000000000000081525081526020016040518060400160405280600181526020017f2000000000000000000000000000000000000000000000000000000000000000815250815250908060018154018082558091505060019003906000526020600020906003020160009091909190915060008201518160000160006101000a81548173ffffffffffffffffffffffffffffffffffffffff021916908373ffffffffffffffffffffffffffffffffffffffff160217905550602082015181600101908051906020019061050f929190610c91565b50604082015181600201908051906020019061052c929190610c91565b505050565b6060806000600260008573ffffffffffffffffffffffffffffffffffffffff1673ffffffffffffffffffffffffffffffffffffffff1681526020019081526020016000205490506000818154811061058c5761058b611195565b5b9060005260206000209060030201600101600082815481106105b1576105b0611195565b5b90600052602060002090600302016002018180546105ce906111f3565b80601f01602080910402602001604051908101604052809291908181526020018280546105fa906111f3565b80156106475780601f1061061c57610100808354040283529160200191610647565b820191906000526020600020905b81548152906001019060200180831161062a57829003601f168201915b5050505050915080805461065a906111f3565b80601f0160208091040260200160405190810160405280929190818152602001828054610686906111f3565b80156106d35780601f106106a8576101008083540402835291602001916106d3565b820191906000526020600020905b8154815290600101906020018083116106b657829003601f168201915b505050505090509250925050915091565b60016020528060005260406000206000915054906101000a900473ffffffffffffffffffffffffffffffffffffffff1681565b60026020528060005260406000206000915090505481565b6000600260003373ffffffffffffffffffffffffffffffffffffffff1673ffffffffffffffffffffffffffffffffffffffff16815260200190815260200160002054141561077c57600080fd5b6000600260003373ffffffffffffffffffffffffffffffffffffffff1673ffffffffffffffffffffffffffffffffffffffff16815260200190815260200160002054815481106107cf576107ce611195565b5b906000526020600020906003020160000160009054906101000a900473ffffffffffffffffffffffffffffffffffffffff1673ffffffffffffffffffffffffffffffffffffffff163373ffffffffffffffffffffffffffffffffffffffff161461083857600080fd5b6000600260003373ffffffffffffffffffffffffffffffffffffffff1673ffffffffffffffffffffffffffffffffffffffff168152602001908152602001600020549050816000828154811061089157610890611195565b5b906000526020600020906003020160010190805190602001906108b5929190610c91565b507f76571b7a897a1509c641587568218a290018fbdc8b9a724f17b77ff0eec22c0c813384600085815481106108ee576108ed611195565b5b906000526020600020906003020160020160405161090f949392919061130d565b60405180910390a15050565b6000600260003373ffffffffffffffffffffffffffffffffffffffff1673ffffffffffffffffffffffffffffffffffffffff168152602001908152602001600020541461096757600080fd5b600060405180606001604052803373ffffffffffffffffffffffffffffffffffffffff16815260200184815260200183815250908060018154018082558091505060019003906000526020600020906003020160009091909190915060008201518160000160006101000a81548173ffffffffffffffffffffffffffffffffffffffff021916908373ffffffffffffffffffffffffffffffffffffffff1602179055506020820151816001019080519060200190610a26929190610c91565b506040820151816002019080519060200190610a43929190610c91565b50505060008080549050905080600260003373ffffffffffffffffffffffffffffffffffffffff1673ffffffffffffffffffffffffffffffffffffffff16815260200190815260200160002081905550336001600083815260200190815260200160002060006101000a81548173ffffffffffffffffffffffffffffffffffffffff021916908373ffffffffffffffffffffffffffffffffffffffff1602179055507f9ab3aefb2ba6dc12910ac1bce4692cf5c3c0d06cff16327c64a3ef78228b130b81338585604051610b1a9493929190611360565b60405180910390a1505050565b60008181548110610b3757600080fd5b90600052602060002090600302016000915090508060000160009054906101000a900473ffffffffffffffffffffffffffffffffffffffff1690806001018054610b80906111f3565b80601f0160208091040260200160405190810160405280929190818152602001828054610bac906111f3565b8015610bf95780601f10610bce57610100808354040283529160200191610bf9565b820191906000526020600020905b815481529060010190602001808311610bdc57829003601f168201915b505050505090806002018054610c0e906111f3565b80601f0160208091040260200160405190810160405280929190818152602001828054610c3a906111f3565b8015610c875780601f10610c5c57610100808354040283529160200191610c87565b820191906000526020600020905b815481529060010190602001808311610c6a57829003601f168201915b5050505050905083565b828054610c9d906111f3565b90600052602060002090601f016020900481019282610cbf5760008555610d06565b82601f10610cd857805160ff1916838001178555610d06565b82800160010185558215610d06579182015b82811115610d05578251825591602001919060010190610cea565b5b509050610d139190610d17565b5090565b5b80821115610d30576000816000905550600101610d18565b5090565b6000604051905090565b600080fd5b600080fd5b600080fd5b600080fd5b6000601f19601f8301169050919050565b7f4e487b7100000000000000000000000000000000000000000000000000000000600052604160045260246000fd5b610d9b82610d52565b810181811067ffffffffffffffff82111715610dba57610db9610d63565b5b80604052505050565b6000610dcd610d34565b9050610dd98282610d92565b919050565b600067ffffffffffffffff821115610df957610df8610d63565b5b610e0282610d52565b9050602081019050919050565b82818337600083830152505050565b6000610e31610e2c84610dde565b610dc3565b905082815260208101848484011115610e4d57610e4c610d4d565b5b610e58848285610e0f565b509392505050565b600082601f830112610e7557610e74610d48565b5b8135610e85848260208601610e1e565b91505092915050565b600060208284031215610ea457610ea3610d3e565b5b600082013567ffffffffffffffff811115610ec257610ec1610d43565b5b610ece84828501610e60565b91505092915050565b600073ffffffffffffffffffffffffffffffffffffffff82169050919050565b6000610f0282610ed7565b9050919050565b610f1281610ef7565b8114610f1d57600080fd5b50565b600081359050610f2f81610f09565b92915050565b600060208284031215610f4b57610f4a610d3e565b5b6000610f5984828501610f20565b91505092915050565b600081519050919050565b600082825260208201905092915050565b60005b83811015610f9c578082015181840152602081019050610f81565b83811115610fab576000848401525b50505050565b6000610fbc82610f62565b610fc68185610f6d565b9350610fd6818560208601610f7e565b610fdf81610d52565b840191505092915050565b600060408201905081810360008301526110048185610fb1565b905081810360208301526110188184610fb1565b90509392505050565b6000819050919050565b61103481611021565b811461103f57600080fd5b50565b6000813590506110518161102b565b92915050565b60006020828403121561106d5761106c610d3e565b5b600061107b84828501611042565b91505092915050565b61108d81610ef7565b82525050565b60006020820190506110a86000830184611084565b92915050565b6110b781611021565b82525050565b60006020820190506110d260008301846110ae565b92915050565b600080604083850312156110ef576110ee610d3e565b5b600083013567ffffffffffffffff81111561110d5761110c610d43565b5b61111985828601610e60565b925050602083013567ffffffffffffffff81111561113a57611139610d43565b5b61114685828601610e60565b9150509250929050565b60006060820190506111656000830186611084565b81810360208301526111778185610fb1565b9050818103604083015261118b8184610fb1565b9050949350505050565b7f4e487b7100000000000000000000000000000000000000000000000000000000600052603260045260246000fd5b7f4e487b7100000000000000000000000000000000000000000000000000000000600052602260045260246000fd5b6000600282049050600182168061120b57607f821691505b6020821081141561121f5761121e6111c4565b5b50919050565b60008190508160005260206000209050919050565b60008154611247816111f3565b6112518186610f6d565b9450600182166000811461126c576001811461127e576112b1565b60ff19831686526020860193506112b1565b61128785611225565b60005b838110156112a95781548189015260018201915060208101905061128a565b808801955050505b50505092915050565b60006080820190506112cf60008301876110ae565b6112dc6020830186611084565b81810360408301526112ee818561123a565b905081810360608301526113028184610fb1565b905095945050505050565b600060808201905061132260008301876110ae565b61132f6020830186611084565b81810360408301526113418185610fb1565b90508181036060830152611355818461123a565b905095945050505050565b600060808201905061137560008301876110ae565b6113826020830186611084565b81810360408301526113948185610fb1565b905081810360608301526113a88184610fb1565b90509594505050505056fea26469706673582212202fbb719adbe9ec16da30d8b2fa10e1850cf7698c4be5039e913094d3a4aba53164736f6c634300080a0033",
					"opcodes": "PUSH1 0x80 PUSH1 0x40 MSTORE CALLVALUE DUP1 ISZERO PUSH2 0x10 JUMPI PUSH1 0x0 DUP1 REVERT JUMPDEST POP PUSH2 0x13E9 DUP1 PUSH2 0x20 PUSH1 0x0 CODECOPY PUSH1 0x0 RETURN INVALID PUSH1 0x80 PUSH1 0x40 MSTORE CALLVALUE DUP1 ISZERO PUSH2 0x10 JUMPI PUSH1 0x0 DUP1 REVERT JUMPDEST POP PUSH1 0x4 CALLDATASIZE LT PUSH2 0x87 JUMPI PUSH1 0x0 CALLDATALOAD PUSH1 0xE0 SHR DUP1 PUSH4 0xA5AC3634 GT PUSH2 0x5B JUMPI DUP1 PUSH4 0xA5AC3634 EQ PUSH2 0x113 JUMPI DUP1 PUSH4 0xB18588FB EQ PUSH2 0x143 JUMPI DUP1 PUSH4 0xCDB3344A EQ PUSH2 0x15F JUMPI DUP1 PUSH4 0xD5CE24ED EQ PUSH2 0x17B JUMPI PUSH2 0x87 JUMP JUMPDEST DUP1 PUSH3 0x81D6E5 EQ PUSH2 0x8C JUMPI DUP1 PUSH4 0x1D4F2C6D EQ PUSH2 0xA8 JUMPI DUP1 PUSH4 0x359C1F72 EQ PUSH2 0xB2 JUMPI DUP1 PUSH4 0x88D0D391 EQ PUSH2 0xE3 JUMPI JUMPDEST PUSH1 0x0 DUP1 REVERT JUMPDEST PUSH2 0xA6 PUSH1 0x4 DUP1 CALLDATASIZE SUB DUP2 ADD SWAP1 PUSH2 0xA1 SWAP2 SWAP1 PUSH2 0xE8E JUMP JUMPDEST PUSH2 0x1AD JUMP JUMPDEST STOP JUMPDEST PUSH2 0xB0 PUSH2 0x399 JUMP JUMPDEST STOP JUMPDEST PUSH2 0xCC PUSH1 0x4 DUP1 CALLDATASIZE SUB DUP2 ADD SWAP1 PUSH2 0xC7 SWAP2 SWAP1 PUSH2 0xF35 JUMP JUMPDEST PUSH2 0x531 JUMP JUMPDEST PUSH1 0x40 MLOAD PUSH2 0xDA SWAP3 SWAP2 SWAP1 PUSH2 0xFEA JUMP JUMPDEST PUSH1 0x40 MLOAD DUP1 SWAP2 SUB SWAP1 RETURN JUMPDEST PUSH2 0xFD PUSH1 0x4 DUP1 CALLDATASIZE SUB DUP2 ADD SWAP1 PUSH2 0xF8 SWAP2 SWAP1 PUSH2 0x1057 JUMP JUMPDEST PUSH2 0x6E4 JUMP JUMPDEST PUSH1 0x40 MLOAD PUSH2 0x10A SWAP2 SWAP1 PUSH2 0x1093 JUMP JUMPDEST PUSH1 0x40 MLOAD DUP1 SWAP2 SUB SWAP1 RETURN JUMPDEST PUSH2 0x12D PUSH1 0x4 DUP1 CALLDATASIZE SUB DUP2 ADD SWAP1 PUSH2 0x128 SWAP2 SWAP1 PUSH2 0xF35 JUMP JUMPDEST PUSH2 0x717 JUMP JUMPDEST PUSH1 0x40 MLOAD PUSH2 0x13A SWAP2 SWAP1 PUSH2 0x10BD JUMP JUMPDEST PUSH1 0x40 MLOAD DUP1 SWAP2 SUB SWAP1 RETURN JUMPDEST PUSH2 0x15D PUSH1 0x4 DUP1 CALLDATASIZE SUB DUP2 ADD SWAP1 PUSH2 0x158 SWAP2 SWAP1 PUSH2 0xE8E JUMP JUMPDEST PUSH2 0x72F JUMP JUMPDEST STOP JUMPDEST PUSH2 0x179 PUSH1 0x4 DUP1 CALLDATASIZE SUB DUP2 ADD SWAP1 PUSH2 0x174 SWAP2 SWAP1 PUSH2 0x10D8 JUMP JUMPDEST PUSH2 0x91B JUMP JUMPDEST STOP JUMPDEST PUSH2 0x195 PUSH1 0x4 DUP1 CALLDATASIZE SUB DUP2 ADD SWAP1 PUSH2 0x190 SWAP2 SWAP1 PUSH2 0x1057 JUMP JUMPDEST PUSH2 0xB27 JUMP JUMPDEST PUSH1 0x40 MLOAD PUSH2 0x1A4 SWAP4 SWAP3 SWAP2 SWAP1 PUSH2 0x1150 JUMP JUMPDEST PUSH1 0x40 MLOAD DUP1 SWAP2 SUB SWAP1 RETURN JUMPDEST PUSH1 0x0 PUSH1 0x2 PUSH1 0x0 CALLER PUSH20 0xFFFFFFFFFFFFFFFFFFFFFFFFFFFFFFFFFFFFFFFF AND PUSH20 0xFFFFFFFFFFFFFFFFFFFFFFFFFFFFFFFFFFFFFFFF AND DUP2 MSTORE PUSH1 0x20 ADD SWAP1 DUP2 MSTORE PUSH1 0x20 ADD PUSH1 0x0 KECCAK256 SLOAD EQ ISZERO PUSH2 0x1FA JUMPI PUSH1 0x0 DUP1 REVERT JUMPDEST PUSH1 0x0 PUSH1 0x2 PUSH1 0x0 CALLER PUSH20 0xFFFFFFFFFFFFFFFFFFFFFFFFFFFFFFFFFFFFFFFF AND PUSH20 0xFFFFFFFFFFFFFFFFFFFFFFFFFFFFFFFFFFFFFFFF AND DUP2 MSTORE PUSH1 0x20 ADD SWAP1 DUP2 MSTORE PUSH1 0x20 ADD PUSH1 0x0 KECCAK256 SLOAD DUP2 SLOAD DUP2 LT PUSH2 0x24D JUMPI PUSH2 0x24C PUSH2 0x1195 JUMP JUMPDEST JUMPDEST SWAP1 PUSH1 0x0 MSTORE PUSH1 0x20 PUSH1 0x0 KECCAK256 SWAP1 PUSH1 0x3 MUL ADD PUSH1 0x0 ADD PUSH1 0x0 SWAP1 SLOAD SWAP1 PUSH2 0x100 EXP SWAP1 DIV PUSH20 0xFFFFFFFFFFFFFFFFFFFFFFFFFFFFFFFFFFFFFFFF AND PUSH20 0xFFFFFFFFFFFFFFFFFFFFFFFFFFFFFFFFFFFFFFFF AND CALLER PUSH20 0xFFFFFFFFFFFFFFFFFFFFFFFFFFFFFFFFFFFFFFFF AND EQ PUSH2 0x2B6 JUMPI PUSH1 0x0 DUP1 REVERT JUMPDEST PUSH1 0x0 PUSH1 0x2 PUSH1 0x0 CALLER PUSH20 0xFFFFFFFFFFFFFFFFFFFFFFFFFFFFFFFFFFFFFFFF AND PUSH20 0xFFFFFFFFFFFFFFFFFFFFFFFFFFFFFFFFFFFFFFFF AND DUP2 MSTORE PUSH1 0x20 ADD SWAP1 DUP2 MSTORE PUSH1 0x20 ADD PUSH1 0x0 KECCAK256 SLOAD SWAP1 POP DUP2 PUSH1 0x0 DUP3 DUP2 SLOAD DUP2 LT PUSH2 0x30F JUMPI PUSH2 0x30E PUSH2 0x1195 JUMP JUMPDEST JUMPDEST SWAP1 PUSH1 0x0 MSTORE PUSH1 0x20 PUSH1 0x0 KECCAK256 SWAP1 PUSH1 0x3 MUL ADD PUSH1 0x2 ADD SWAP1 DUP1 MLOAD SWAP1 PUSH1 0x20 ADD SWAP1 PUSH2 0x333 SWAP3 SWAP2 SWAP1 PUSH2 0xC91 JUMP JUMPDEST POP PUSH32 0x76571B7A897A1509C641587568218A290018FBDC8B9A724F17B77FF0EEC22C0C DUP2 CALLER PUSH1 0x0 DUP5 DUP2 SLOAD DUP2 LT PUSH2 0x36B JUMPI PUSH2 0x36A PUSH2 0x1195 JUMP JUMPDEST JUMPDEST SWAP1 PUSH1 0x0 MSTORE PUSH1 0x20 PUSH1 0x0 KECCAK256 SWAP1 PUSH1 0x3 MUL ADD PUSH1 0x1 ADD DUP6 PUSH1 0x40 MLOAD PUSH2 0x38D SWAP5 SWAP4 SWAP3 SWAP2 SWAP1 PUSH2 0x12BA JUMP JUMPDEST PUSH1 0x40 MLOAD DUP1 SWAP2 SUB SWAP1 LOG1 POP POP JUMP JUMPDEST PUSH20 0x8D3E809FBD258083A5BA004A527159DA535C8ABA PUSH20 0xFFFFFFFFFFFFFFFFFFFFFFFFFFFFFFFFFFFFFFFF AND CALLER PUSH20 0xFFFFFFFFFFFFFFFFFFFFFFFFFFFFFFFFFFFFFFFF AND EQ PUSH2 0x3E5 JUMPI PUSH1 0x0 DUP1 REVERT JUMPDEST PUSH1 0x0 PUSH1 0x40 MLOAD DUP1 PUSH1 0x60 ADD PUSH1 0x40 MSTORE DUP1 PUSH1 0x0 PUSH20 0xFFFFFFFFFFFFFFFFFFFFFFFFFFFFFFFFFFFFFFFF AND DUP2 MSTORE PUSH1 0x20 ADD PUSH1 0x40 MLOAD DUP1 PUSH1 0x40 ADD PUSH1 0x40 MSTORE DUP1 PUSH1 0x1 DUP2 MSTORE PUSH1 0x20 ADD PUSH32 0x2000000000000000000000000000000000000000000000000000000000000000 DUP2 MSTORE POP DUP2 MSTORE PUSH1 0x20 ADD PUSH1 0x40 MLOAD DUP1 PUSH1 0x40 ADD PUSH1 0x40 MSTORE DUP1 PUSH1 0x1 DUP2 MSTORE PUSH1 0x20 ADD PUSH32 0x2000000000000000000000000000000000000000000000000000000000000000 DUP2 MSTORE POP DUP2 MSTORE POP SWAP1 DUP1 PUSH1 0x1 DUP2 SLOAD ADD DUP1 DUP3 SSTORE DUP1 SWAP2 POP POP PUSH1 0x1 SWAP1 SUB SWAP1 PUSH1 0x0 MSTORE PUSH1 0x20 PUSH1 0x0 KECCAK256 SWAP1 PUSH1 0x3 MUL ADD PUSH1 0x0 SWAP1 SWAP2 SWAP1 SWAP2 SWAP1 SWAP2 POP PUSH1 0x0 DUP3 ADD MLOAD DUP2 PUSH1 0x0 ADD PUSH1 0x0 PUSH2 0x100 EXP DUP2 SLOAD DUP2 PUSH20 0xFFFFFFFFFFFFFFFFFFFFFFFFFFFFFFFFFFFFFFFF MUL NOT AND SWAP1 DUP4 PUSH20 0xFFFFFFFFFFFFFFFFFFFFFFFFFFFFFFFFFFFFFFFF AND MUL OR SWAP1 SSTORE POP PUSH1 0x20 DUP3 ADD MLOAD DUP2 PUSH1 0x1 ADD SWAP1 DUP1 MLOAD SWAP1 PUSH1 0x20 ADD SWAP1 PUSH2 0x50F SWAP3 SWAP2 SWAP1 PUSH2 0xC91 JUMP JUMPDEST POP PUSH1 0x40 DUP3 ADD MLOAD DUP2 PUSH1 0x2 ADD SWAP1 DUP1 MLOAD SWAP1 PUSH1 0x20 ADD SWAP1 PUSH2 0x52C SWAP3 SWAP2 SWAP1 PUSH2 0xC91 JUMP JUMPDEST POP POP POP JUMP JUMPDEST PUSH1 0x60 DUP1 PUSH1 0x0 PUSH1 0x2 PUSH1 0x0 DUP6 PUSH20 0xFFFFFFFFFFFFFFFFFFFFFFFFFFFFFFFFFFFFFFFF AND PUSH20 0xFFFFFFFFFFFFFFFFFFFFFFFFFFFFFFFFFFFFFFFF AND DUP2 MSTORE PUSH1 0x20 ADD SWAP1 DUP2 MSTORE PUSH1 0x20 ADD PUSH1 0x0 KECCAK256 SLOAD SWAP1 POP PUSH1 0x0 DUP2 DUP2 SLOAD DUP2 LT PUSH2 0x58C JUMPI PUSH2 0x58B PUSH2 0x1195 JUMP JUMPDEST JUMPDEST SWAP1 PUSH1 0x0 MSTORE PUSH1 0x20 PUSH1 0x0 KECCAK256 SWAP1 PUSH1 0x3 MUL ADD PUSH1 0x1 ADD PUSH1 0x0 DUP3 DUP2 SLOAD DUP2 LT PUSH2 0x5B1 JUMPI PUSH2 0x5B0 PUSH2 0x1195 JUMP JUMPDEST JUMPDEST SWAP1 PUSH1 0x0 MSTORE PUSH1 0x20 PUSH1 0x0 KECCAK256 SWAP1 PUSH1 0x3 MUL ADD PUSH1 0x2 ADD DUP2 DUP1 SLOAD PUSH2 0x5CE SWAP1 PUSH2 0x11F3 JUMP JUMPDEST DUP1 PUSH1 0x1F ADD PUSH1 0x20 DUP1 SWAP2 DIV MUL PUSH1 0x20 ADD PUSH1 0x40 MLOAD SWAP1 DUP2 ADD PUSH1 0x40 MSTORE DUP1 SWAP3 SWAP2 SWAP1 DUP2 DUP2 MSTORE PUSH1 0x20 ADD DUP3 DUP1 SLOAD PUSH2 0x5FA SWAP1 PUSH2 0x11F3 JUMP JUMPDEST DUP1 ISZERO PUSH2 0x647 JUMPI DUP1 PUSH1 0x1F LT PUSH2 0x61C JUMPI PUSH2 0x100 DUP1 DUP4 SLOAD DIV MUL DUP4 MSTORE SWAP2 PUSH1 0x20 ADD SWAP2 PUSH2 0x647 JUMP JUMPDEST DUP3 ADD SWAP2 SWAP1 PUSH1 0x0 MSTORE PUSH1 0x20 PUSH1 0x0 KECCAK256 SWAP1 JUMPDEST DUP2 SLOAD DUP2 MSTORE SWAP1 PUSH1 0x1 ADD SWAP1 PUSH1 0x20 ADD DUP1 DUP4 GT PUSH2 0x62A JUMPI DUP3 SWAP1 SUB PUSH1 0x1F AND DUP3 ADD SWAP2 JUMPDEST POP POP POP POP POP SWAP2 POP DUP1 DUP1 SLOAD PUSH2 0x65A SWAP1 PUSH2 0x11F3 JUMP JUMPDEST DUP1 PUSH1 0x1F ADD PUSH1 0x20 DUP1 SWAP2 DIV MUL PUSH1 0x20 ADD PUSH1 0x40 MLOAD SWAP1 DUP2 ADD PUSH1 0x40 MSTORE DUP1 SWAP3 SWAP2 SWAP1 DUP2 DUP2 MSTORE PUSH1 0x20 ADD DUP3 DUP1 SLOAD PUSH2 0x686 SWAP1 PUSH2 0x11F3 JUMP JUMPDEST DUP1 ISZERO PUSH2 0x6D3 JUMPI DUP1 PUSH1 0x1F LT PUSH2 0x6A8 JUMPI PUSH2 0x100 DUP1 DUP4 SLOAD DIV MUL DUP4 MSTORE SWAP2 PUSH1 0x20 ADD SWAP2 PUSH2 0x6D3 JUMP JUMPDEST DUP3 ADD SWAP2 SWAP1 PUSH1 0x0 MSTORE PUSH1 0x20 PUSH1 0x0 KECCAK256 SWAP1 JUMPDEST DUP2 SLOAD DUP2 MSTORE SWAP1 PUSH1 0x1 ADD SWAP1 PUSH1 0x20 ADD DUP1 DUP4 GT PUSH2 0x6B6 JUMPI DUP3 SWAP1 SUB PUSH1 0x1F AND DUP3 ADD SWAP2 JUMPDEST POP POP POP POP POP SWAP1 POP SWAP3 POP SWAP3 POP POP SWAP2 POP SWAP2 JUMP JUMPDEST PUSH1 0x1 PUSH1 0x20 MSTORE DUP1 PUSH1 0x0 MSTORE PUSH1 0x40 PUSH1 0x0 KECCAK256 PUSH1 0x0 SWAP2 POP SLOAD SWAP1 PUSH2 0x100 EXP SWAP1 DIV PUSH20 0xFFFFFFFFFFFFFFFFFFFFFFFFFFFFFFFFFFFFFFFF AND DUP2 JUMP JUMPDEST PUSH1 0x2 PUSH1 0x20 MSTORE DUP1 PUSH1 0x0 MSTORE PUSH1 0x40 PUSH1 0x0 KECCAK256 PUSH1 0x0 SWAP2 POP SWAP1 POP SLOAD DUP2 JUMP JUMPDEST PUSH1 0x0 PUSH1 0x2 PUSH1 0x0 CALLER PUSH20 0xFFFFFFFFFFFFFFFFFFFFFFFFFFFFFFFFFFFFFFFF AND PUSH20 0xFFFFFFFFFFFFFFFFFFFFFFFFFFFFFFFFFFFFFFFF AND DUP2 MSTORE PUSH1 0x20 ADD SWAP1 DUP2 MSTORE PUSH1 0x20 ADD PUSH1 0x0 KECCAK256 SLOAD EQ ISZERO PUSH2 0x77C JUMPI PUSH1 0x0 DUP1 REVERT JUMPDEST PUSH1 0x0 PUSH1 0x2 PUSH1 0x0 CALLER PUSH20 0xFFFFFFFFFFFFFFFFFFFFFFFFFFFFFFFFFFFFFFFF AND PUSH20 0xFFFFFFFFFFFFFFFFFFFFFFFFFFFFFFFFFFFFFFFF AND DUP2 MSTORE PUSH1 0x20 ADD SWAP1 DUP2 MSTORE PUSH1 0x20 ADD PUSH1 0x0 KECCAK256 SLOAD DUP2 SLOAD DUP2 LT PUSH2 0x7CF JUMPI PUSH2 0x7CE PUSH2 0x1195 JUMP JUMPDEST JUMPDEST SWAP1 PUSH1 0x0 MSTORE PUSH1 0x20 PUSH1 0x0 KECCAK256 SWAP1 PUSH1 0x3 MUL ADD PUSH1 0x0 ADD PUSH1 0x0 SWAP1 SLOAD SWAP1 PUSH2 0x100 EXP SWAP1 DIV PUSH20 0xFFFFFFFFFFFFFFFFFFFFFFFFFFFFFFFFFFFFFFFF AND PUSH20 0xFFFFFFFFFFFFFFFFFFFFFFFFFFFFFFFFFFFFFFFF AND CALLER PUSH20 0xFFFFFFFFFFFFFFFFFFFFFFFFFFFFFFFFFFFFFFFF AND EQ PUSH2 0x838 JUMPI PUSH1 0x0 DUP1 REVERT JUMPDEST PUSH1 0x0 PUSH1 0x2 PUSH1 0x0 CALLER PUSH20 0xFFFFFFFFFFFFFFFFFFFFFFFFFFFFFFFFFFFFFFFF AND PUSH20 0xFFFFFFFFFFFFFFFFFFFFFFFFFFFFFFFFFFFFFFFF AND DUP2 MSTORE PUSH1 0x20 ADD SWAP1 DUP2 MSTORE PUSH1 0x20 ADD PUSH1 0x0 KECCAK256 SLOAD SWAP1 POP DUP2 PUSH1 0x0 DUP3 DUP2 SLOAD DUP2 LT PUSH2 0x891 JUMPI PUSH2 0x890 PUSH2 0x1195 JUMP JUMPDEST JUMPDEST SWAP1 PUSH1 0x0 MSTORE PUSH1 0x20 PUSH1 0x0 KECCAK256 SWAP1 PUSH1 0x3 MUL ADD PUSH1 0x1 ADD SWAP1 DUP1 MLOAD SWAP1 PUSH1 0x20 ADD SWAP1 PUSH2 0x8B5 SWAP3 SWAP2 SWAP1 PUSH2 0xC91 JUMP JUMPDEST POP PUSH32 0x76571B7A897A1509C641587568218A290018FBDC8B9A724F17B77FF0EEC22C0C DUP2 CALLER DUP5 PUSH1 0x0 DUP6 DUP2 SLOAD DUP2 LT PUSH2 0x8EE JUMPI PUSH2 0x8ED PUSH2 0x1195 JUMP JUMPDEST JUMPDEST SWAP1 PUSH1 0x0 MSTORE PUSH1 0x20 PUSH1 0x0 KECCAK256 SWAP1 PUSH1 0x3 MUL ADD PUSH1 0x2 ADD PUSH1 0x40 MLOAD PUSH2 0x90F SWAP5 SWAP4 SWAP3 SWAP2 SWAP1 PUSH2 0x130D JUMP JUMPDEST PUSH1 0x40 MLOAD DUP1 SWAP2 SUB SWAP1 LOG1 POP POP JUMP JUMPDEST PUSH1 0x0 PUSH1 0x2 PUSH1 0x0 CALLER PUSH20 0xFFFFFFFFFFFFFFFFFFFFFFFFFFFFFFFFFFFFFFFF AND PUSH20 0xFFFFFFFFFFFFFFFFFFFFFFFFFFFFFFFFFFFFFFFF AND DUP2 MSTORE PUSH1 0x20 ADD SWAP1 DUP2 MSTORE PUSH1 0x20 ADD PUSH1 0x0 KECCAK256 SLOAD EQ PUSH2 0x967 JUMPI PUSH1 0x0 DUP1 REVERT JUMPDEST PUSH1 0x0 PUSH1 0x40 MLOAD DUP1 PUSH1 0x60 ADD PUSH1 0x40 MSTORE DUP1 CALLER PUSH20 0xFFFFFFFFFFFFFFFFFFFFFFFFFFFFFFFFFFFFFFFF AND DUP2 MSTORE PUSH1 0x20 ADD DUP5 DUP2 MSTORE PUSH1 0x20 ADD DUP4 DUP2 MSTORE POP SWAP1 DUP1 PUSH1 0x1 DUP2 SLOAD ADD DUP1 DUP3 SSTORE DUP1 SWAP2 POP POP PUSH1 0x1 SWAP1 SUB SWAP1 PUSH1 0x0 MSTORE PUSH1 0x20 PUSH1 0x0 KECCAK256 SWAP1 PUSH1 0x3 MUL ADD PUSH1 0x0 SWAP1 SWAP2 SWAP1 SWAP2 SWAP1 SWAP2 POP PUSH1 0x0 DUP3 ADD MLOAD DUP2 PUSH1 0x0 ADD PUSH1 0x0 PUSH2 0x100 EXP DUP2 SLOAD DUP2 PUSH20 0xFFFFFFFFFFFFFFFFFFFFFFFFFFFFFFFFFFFFFFFF MUL NOT AND SWAP1 DUP4 PUSH20 0xFFFFFFFFFFFFFFFFFFFFFFFFFFFFFFFFFFFFFFFF AND MUL OR SWAP1 SSTORE POP PUSH1 0x20 DUP3 ADD MLOAD DUP2 PUSH1 0x1 ADD SWAP1 DUP1 MLOAD SWAP1 PUSH1 0x20 ADD SWAP1 PUSH2 0xA26 SWAP3 SWAP2 SWAP1 PUSH2 0xC91 JUMP JUMPDEST POP PUSH1 0x40 DUP3 ADD MLOAD DUP2 PUSH1 0x2 ADD SWAP1 DUP1 MLOAD SWAP1 PUSH1 0x20 ADD SWAP1 PUSH2 0xA43 SWAP3 SWAP2 SWAP1 PUSH2 0xC91 JUMP JUMPDEST POP POP POP PUSH1 0x0 DUP1 DUP1 SLOAD SWAP1 POP SWAP1 POP DUP1 PUSH1 0x2 PUSH1 0x0 CALLER PUSH20 0xFFFFFFFFFFFFFFFFFFFFFFFFFFFFFFFFFFFFFFFF AND PUSH20 0xFFFFFFFFFFFFFFFFFFFFFFFFFFFFFFFFFFFFFFFF AND DUP2 MSTORE PUSH1 0x20 ADD SWAP1 DUP2 MSTORE PUSH1 0x20 ADD PUSH1 0x0 KECCAK256 DUP2 SWAP1 SSTORE POP CALLER PUSH1 0x1 PUSH1 0x0 DUP4 DUP2 MSTORE PUSH1 0x20 ADD SWAP1 DUP2 MSTORE PUSH1 0x20 ADD PUSH1 0x0 KECCAK256 PUSH1 0x0 PUSH2 0x100 EXP DUP2 SLOAD DUP2 PUSH20 0xFFFFFFFFFFFFFFFFFFFFFFFFFFFFFFFFFFFFFFFF MUL NOT AND SWAP1 DUP4 PUSH20 0xFFFFFFFFFFFFFFFFFFFFFFFFFFFFFFFFFFFFFFFF AND MUL OR SWAP1 SSTORE POP PUSH32 0x9AB3AEFB2BA6DC12910AC1BCE4692CF5C3C0D06CFF16327C64A3EF78228B130B DUP2 CALLER DUP6 DUP6 PUSH1 0x40 MLOAD PUSH2 0xB1A SWAP5 SWAP4 SWAP3 SWAP2 SWAP1 PUSH2 0x1360 JUMP JUMPDEST PUSH1 0x40 MLOAD DUP1 SWAP2 SUB SWAP1 LOG1 POP POP POP JUMP JUMPDEST PUSH1 0x0 DUP2 DUP2 SLOAD DUP2 LT PUSH2 0xB37 JUMPI PUSH1 0x0 DUP1 REVERT JUMPDEST SWAP1 PUSH1 0x0 MSTORE PUSH1 0x20 PUSH1 0x0 KECCAK256 SWAP1 PUSH1 0x3 MUL ADD PUSH1 0x0 SWAP2 POP SWAP1 POP DUP1 PUSH1 0x0 ADD PUSH1 0x0 SWAP1 SLOAD SWAP1 PUSH2 0x100 EXP SWAP1 DIV PUSH20 0xFFFFFFFFFFFFFFFFFFFFFFFFFFFFFFFFFFFFFFFF AND SWAP1 DUP1 PUSH1 0x1 ADD DUP1 SLOAD PUSH2 0xB80 SWAP1 PUSH2 0x11F3 JUMP JUMPDEST DUP1 PUSH1 0x1F ADD PUSH1 0x20 DUP1 SWAP2 DIV MUL PUSH1 0x20 ADD PUSH1 0x40 MLOAD SWAP1 DUP2 ADD PUSH1 0x40 MSTORE DUP1 SWAP3 SWAP2 SWAP1 DUP2 DUP2 MSTORE PUSH1 0x20 ADD DUP3 DUP1 SLOAD PUSH2 0xBAC SWAP1 PUSH2 0x11F3 JUMP JUMPDEST DUP1 ISZERO PUSH2 0xBF9 JUMPI DUP1 PUSH1 0x1F LT PUSH2 0xBCE JUMPI PUSH2 0x100 DUP1 DUP4 SLOAD DIV MUL DUP4 MSTORE SWAP2 PUSH1 0x20 ADD SWAP2 PUSH2 0xBF9 JUMP JUMPDEST DUP3 ADD SWAP2 SWAP1 PUSH1 0x0 MSTORE PUSH1 0x20 PUSH1 0x0 KECCAK256 SWAP1 JUMPDEST DUP2 SLOAD DUP2 MSTORE SWAP1 PUSH1 0x1 ADD SWAP1 PUSH1 0x20 ADD DUP1 DUP4 GT PUSH2 0xBDC JUMPI DUP3 SWAP1 SUB PUSH1 0x1F AND DUP3 ADD SWAP2 JUMPDEST POP POP POP POP POP SWAP1 DUP1 PUSH1 0x2 ADD DUP1 SLOAD PUSH2 0xC0E SWAP1 PUSH2 0x11F3 JUMP JUMPDEST DUP1 PUSH1 0x1F ADD PUSH1 0x20 DUP1 SWAP2 DIV MUL PUSH1 0x20 ADD PUSH1 0x40 MLOAD SWAP1 DUP2 ADD PUSH1 0x40 MSTORE DUP1 SWAP3 SWAP2 SWAP1 DUP2 DUP2 MSTORE PUSH1 0x20 ADD DUP3 DUP1 SLOAD PUSH2 0xC3A SWAP1 PUSH2 0x11F3 JUMP JUMPDEST DUP1 ISZERO PUSH2 0xC87 JUMPI DUP1 PUSH1 0x1F LT PUSH2 0xC5C JUMPI PUSH2 0x100 DUP1 DUP4 SLOAD DIV MUL DUP4 MSTORE SWAP2 PUSH1 0x20 ADD SWAP2 PUSH2 0xC87 JUMP JUMPDEST DUP3 ADD SWAP2 SWAP1 PUSH1 0x0 MSTORE PUSH1 0x20 PUSH1 0x0 KECCAK256 SWAP1 JUMPDEST DUP2 SLOAD DUP2 MSTORE SWAP1 PUSH1 0x1 ADD SWAP1 PUSH1 0x20 ADD DUP1 DUP4 GT PUSH2 0xC6A JUMPI DUP3 SWAP1 SUB PUSH1 0x1F AND DUP3 ADD SWAP2 JUMPDEST POP POP POP POP POP SWAP1 POP DUP4 JUMP JUMPDEST DUP3 DUP1 SLOAD PUSH2 0xC9D SWAP1 PUSH2 0x11F3 JUMP JUMPDEST SWAP1 PUSH1 0x0 MSTORE PUSH1 0x20 PUSH1 0x0 KECCAK256 SWAP1 PUSH1 0x1F ADD PUSH1 0x20 SWAP1 DIV DUP2 ADD SWAP3 DUP3 PUSH2 0xCBF JUMPI PUSH1 0x0 DUP6 SSTORE PUSH2 0xD06 JUMP JUMPDEST DUP3 PUSH1 0x1F LT PUSH2 0xCD8 JUMPI DUP1 MLOAD PUSH1 0xFF NOT AND DUP4 DUP1 ADD OR DUP6 SSTORE PUSH2 0xD06 JUMP JUMPDEST DUP3 DUP1 ADD PUSH1 0x1 ADD DUP6 SSTORE DUP3 ISZERO PUSH2 0xD06 JUMPI SWAP2 DUP3 ADD JUMPDEST DUP3 DUP2 GT ISZERO PUSH2 0xD05 JUMPI DUP3 MLOAD DUP3 SSTORE SWAP2 PUSH1 0x20 ADD SWAP2 SWAP1 PUSH1 0x1 ADD SWAP1 PUSH2 0xCEA JUMP JUMPDEST JUMPDEST POP SWAP1 POP PUSH2 0xD13 SWAP2 SWAP1 PUSH2 0xD17 JUMP JUMPDEST POP SWAP1 JUMP JUMPDEST JUMPDEST DUP1 DUP3 GT ISZERO PUSH2 0xD30 JUMPI PUSH1 0x0 DUP2 PUSH1 0x0 SWAP1 SSTORE POP PUSH1 0x1 ADD PUSH2 0xD18 JUMP JUMPDEST POP SWAP1 JUMP JUMPDEST PUSH1 0x0 PUSH1 0x40 MLOAD SWAP1 POP SWAP1 JUMP JUMPDEST PUSH1 0x0 DUP1 REVERT JUMPDEST PUSH1 0x0 DUP1 REVERT JUMPDEST PUSH1 0x0 DUP1 REVERT JUMPDEST PUSH1 0x0 DUP1 REVERT JUMPDEST PUSH1 0x0 PUSH1 0x1F NOT PUSH1 0x1F DUP4 ADD AND SWAP1 POP SWAP2 SWAP1 POP JUMP JUMPDEST PUSH32 0x4E487B7100000000000000000000000000000000000000000000000000000000 PUSH1 0x0 MSTORE PUSH1 0x41 PUSH1 0x4 MSTORE PUSH1 0x24 PUSH1 0x0 REVERT JUMPDEST PUSH2 0xD9B DUP3 PUSH2 0xD52 JUMP JUMPDEST DUP2 ADD DUP2 DUP2 LT PUSH8 0xFFFFFFFFFFFFFFFF DUP3 GT OR ISZERO PUSH2 0xDBA JUMPI PUSH2 0xDB9 PUSH2 0xD63 JUMP JUMPDEST JUMPDEST DUP1 PUSH1 0x40 MSTORE POP POP POP JUMP JUMPDEST PUSH1 0x0 PUSH2 0xDCD PUSH2 0xD34 JUMP JUMPDEST SWAP1 POP PUSH2 0xDD9 DUP3 DUP3 PUSH2 0xD92 JUMP JUMPDEST SWAP2 SWAP1 POP JUMP JUMPDEST PUSH1 0x0 PUSH8 0xFFFFFFFFFFFFFFFF DUP3 GT ISZERO PUSH2 0xDF9 JUMPI PUSH2 0xDF8 PUSH2 0xD63 JUMP JUMPDEST JUMPDEST PUSH2 0xE02 DUP3 PUSH2 0xD52 JUMP JUMPDEST SWAP1 POP PUSH1 0x20 DUP2 ADD SWAP1 POP SWAP2 SWAP1 POP JUMP JUMPDEST DUP3 DUP2 DUP4 CALLDATACOPY PUSH1 0x0 DUP4 DUP4 ADD MSTORE POP POP POP JUMP JUMPDEST PUSH1 0x0 PUSH2 0xE31 PUSH2 0xE2C DUP5 PUSH2 0xDDE JUMP JUMPDEST PUSH2 0xDC3 JUMP JUMPDEST SWAP1 POP DUP3 DUP2 MSTORE PUSH1 0x20 DUP2 ADD DUP5 DUP5 DUP5 ADD GT ISZERO PUSH2 0xE4D JUMPI PUSH2 0xE4C PUSH2 0xD4D JUMP JUMPDEST JUMPDEST PUSH2 0xE58 DUP5 DUP3 DUP6 PUSH2 0xE0F JUMP JUMPDEST POP SWAP4 SWAP3 POP POP POP JUMP JUMPDEST PUSH1 0x0 DUP3 PUSH1 0x1F DUP4 ADD SLT PUSH2 0xE75 JUMPI PUSH2 0xE74 PUSH2 0xD48 JUMP JUMPDEST JUMPDEST DUP2 CALLDATALOAD PUSH2 0xE85 DUP5 DUP3 PUSH1 0x20 DUP7 ADD PUSH2 0xE1E JUMP JUMPDEST SWAP2 POP POP SWAP3 SWAP2 POP POP JUMP JUMPDEST PUSH1 0x0 PUSH1 0x20 DUP3 DUP5 SUB SLT ISZERO PUSH2 0xEA4 JUMPI PUSH2 0xEA3 PUSH2 0xD3E JUMP JUMPDEST JUMPDEST PUSH1 0x0 DUP3 ADD CALLDATALOAD PUSH8 0xFFFFFFFFFFFFFFFF DUP2 GT ISZERO PUSH2 0xEC2 JUMPI PUSH2 0xEC1 PUSH2 0xD43 JUMP JUMPDEST JUMPDEST PUSH2 0xECE DUP5 DUP3 DUP6 ADD PUSH2 0xE60 JUMP JUMPDEST SWAP2 POP POP SWAP3 SWAP2 POP POP JUMP JUMPDEST PUSH1 0x0 PUSH20 0xFFFFFFFFFFFFFFFFFFFFFFFFFFFFFFFFFFFFFFFF DUP3 AND SWAP1 POP SWAP2 SWAP1 POP JUMP JUMPDEST PUSH1 0x0 PUSH2 0xF02 DUP3 PUSH2 0xED7 JUMP JUMPDEST SWAP1 POP SWAP2 SWAP1 POP JUMP JUMPDEST PUSH2 0xF12 DUP2 PUSH2 0xEF7 JUMP JUMPDEST DUP2 EQ PUSH2 0xF1D JUMPI PUSH1 0x0 DUP1 REVERT JUMPDEST POP JUMP JUMPDEST PUSH1 0x0 DUP2 CALLDATALOAD SWAP1 POP PUSH2 0xF2F DUP2 PUSH2 0xF09 JUMP JUMPDEST SWAP3 SWAP2 POP POP JUMP JUMPDEST PUSH1 0x0 PUSH1 0x20 DUP3 DUP5 SUB SLT ISZERO PUSH2 0xF4B JUMPI PUSH2 0xF4A PUSH2 0xD3E JUMP JUMPDEST JUMPDEST PUSH1 0x0 PUSH2 0xF59 DUP5 DUP3 DUP6 ADD PUSH2 0xF20 JUMP JUMPDEST SWAP2 POP POP SWAP3 SWAP2 POP POP JUMP JUMPDEST PUSH1 0x0 DUP2 MLOAD SWAP1 POP SWAP2 SWAP1 POP JUMP JUMPDEST PUSH1 0x0 DUP3 DUP3 MSTORE PUSH1 0x20 DUP3 ADD SWAP1 POP SWAP3 SWAP2 POP POP JUMP JUMPDEST PUSH1 0x0 JUMPDEST DUP4 DUP2 LT ISZERO PUSH2 0xF9C JUMPI DUP1 DUP3 ADD MLOAD DUP2 DUP5 ADD MSTORE PUSH1 0x20 DUP2 ADD SWAP1 POP PUSH2 0xF81 JUMP JUMPDEST DUP4 DUP2 GT ISZERO PUSH2 0xFAB JUMPI PUSH1 0x0 DUP5 DUP5 ADD MSTORE JUMPDEST POP POP POP POP JUMP JUMPDEST PUSH1 0x0 PUSH2 0xFBC DUP3 PUSH2 0xF62 JUMP JUMPDEST PUSH2 0xFC6 DUP2 DUP6 PUSH2 0xF6D JUMP JUMPDEST SWAP4 POP PUSH2 0xFD6 DUP2 DUP6 PUSH1 0x20 DUP7 ADD PUSH2 0xF7E JUMP JUMPDEST PUSH2 0xFDF DUP2 PUSH2 0xD52 JUMP JUMPDEST DUP5 ADD SWAP2 POP POP SWAP3 SWAP2 POP POP JUMP JUMPDEST PUSH1 0x0 PUSH1 0x40 DUP3 ADD SWAP1 POP DUP2 DUP2 SUB PUSH1 0x0 DUP4 ADD MSTORE PUSH2 0x1004 DUP2 DUP6 PUSH2 0xFB1 JUMP JUMPDEST SWAP1 POP DUP2 DUP2 SUB PUSH1 0x20 DUP4 ADD MSTORE PUSH2 0x1018 DUP2 DUP5 PUSH2 0xFB1 JUMP JUMPDEST SWAP1 POP SWAP4 SWAP3 POP POP POP JUMP JUMPDEST PUSH1 0x0 DUP2 SWAP1 POP SWAP2 SWAP1 POP JUMP JUMPDEST PUSH2 0x1034 DUP2 PUSH2 0x1021 JUMP JUMPDEST DUP2 EQ PUSH2 0x103F JUMPI PUSH1 0x0 DUP1 REVERT JUMPDEST POP JUMP JUMPDEST PUSH1 0x0 DUP2 CALLDATALOAD SWAP1 POP PUSH2 0x1051 DUP2 PUSH2 0x102B JUMP JUMPDEST SWAP3 SWAP2 POP POP JUMP JUMPDEST PUSH1 0x0 PUSH1 0x20 DUP3 DUP5 SUB SLT ISZERO PUSH2 0x106D JUMPI PUSH2 0x106C PUSH2 0xD3E JUMP JUMPDEST JUMPDEST PUSH1 0x0 PUSH2 0x107B DUP5 DUP3 DUP6 ADD PUSH2 0x1042 JUMP JUMPDEST SWAP2 POP POP SWAP3 SWAP2 POP POP JUMP JUMPDEST PUSH2 0x108D DUP2 PUSH2 0xEF7 JUMP JUMPDEST DUP3 MSTORE POP POP JUMP JUMPDEST PUSH1 0x0 PUSH1 0x20 DUP3 ADD SWAP1 POP PUSH2 0x10A8 PUSH1 0x0 DUP4 ADD DUP5 PUSH2 0x1084 JUMP JUMPDEST SWAP3 SWAP2 POP POP JUMP JUMPDEST PUSH2 0x10B7 DUP2 PUSH2 0x1021 JUMP JUMPDEST DUP3 MSTORE POP POP JUMP JUMPDEST PUSH1 0x0 PUSH1 0x20 DUP3 ADD SWAP1 POP PUSH2 0x10D2 PUSH1 0x0 DUP4 ADD DUP5 PUSH2 0x10AE JUMP JUMPDEST SWAP3 SWAP2 POP POP JUMP JUMPDEST PUSH1 0x0 DUP1 PUSH1 0x40 DUP4 DUP6 SUB SLT ISZERO PUSH2 0x10EF JUMPI PUSH2 0x10EE PUSH2 0xD3E JUMP JUMPDEST JUMPDEST PUSH1 0x0 DUP4 ADD CALLDATALOAD PUSH8 0xFFFFFFFFFFFFFFFF DUP2 GT ISZERO PUSH2 0x110D JUMPI PUSH2 0x110C PUSH2 0xD43 JUMP JUMPDEST JUMPDEST PUSH2 0x1119 DUP6 DUP3 DUP7 ADD PUSH2 0xE60 JUMP JUMPDEST SWAP3 POP POP PUSH1 0x20 DUP4 ADD CALLDATALOAD PUSH8 0xFFFFFFFFFFFFFFFF DUP2 GT ISZERO PUSH2 0x113A JUMPI PUSH2 0x1139 PUSH2 0xD43 JUMP JUMPDEST JUMPDEST PUSH2 0x1146 DUP6 DUP3 DUP7 ADD PUSH2 0xE60 JUMP JUMPDEST SWAP2 POP POP SWAP3 POP SWAP3 SWAP1 POP JUMP JUMPDEST PUSH1 0x0 PUSH1 0x60 DUP3 ADD SWAP1 POP PUSH2 0x1165 PUSH1 0x0 DUP4 ADD DUP7 PUSH2 0x1084 JUMP JUMPDEST DUP2 DUP2 SUB PUSH1 0x20 DUP4 ADD MSTORE PUSH2 0x1177 DUP2 DUP6 PUSH2 0xFB1 JUMP JUMPDEST SWAP1 POP DUP2 DUP2 SUB PUSH1 0x40 DUP4 ADD MSTORE PUSH2 0x118B DUP2 DUP5 PUSH2 0xFB1 JUMP JUMPDEST SWAP1 POP SWAP5 SWAP4 POP POP POP POP JUMP JUMPDEST PUSH32 0x4E487B7100000000000000000000000000000000000000000000000000000000 PUSH1 0x0 MSTORE PUSH1 0x32 PUSH1 0x4 MSTORE PUSH1 0x24 PUSH1 0x0 REVERT JUMPDEST PUSH32 0x4E487B7100000000000000000000000000000000000000000000000000000000 PUSH1 0x0 MSTORE PUSH1 0x22 PUSH1 0x4 MSTORE PUSH1 0x24 PUSH1 0x0 REVERT JUMPDEST PUSH1 0x0 PUSH1 0x2 DUP3 DIV SWAP1 POP PUSH1 0x1 DUP3 AND DUP1 PUSH2 0x120B JUMPI PUSH1 0x7F DUP3 AND SWAP2 POP JUMPDEST PUSH1 0x20 DUP3 LT DUP2 EQ ISZERO PUSH2 0x121F JUMPI PUSH2 0x121E PUSH2 0x11C4 JUMP JUMPDEST JUMPDEST POP SWAP2 SWAP1 POP JUMP JUMPDEST PUSH1 0x0 DUP2 SWAP1 POP DUP2 PUSH1 0x0 MSTORE PUSH1 0x20 PUSH1 0x0 KECCAK256 SWAP1 POP SWAP2 SWAP1 POP JUMP JUMPDEST PUSH1 0x0 DUP2 SLOAD PUSH2 0x1247 DUP2 PUSH2 0x11F3 JUMP JUMPDEST PUSH2 0x1251 DUP2 DUP7 PUSH2 0xF6D JUMP JUMPDEST SWAP5 POP PUSH1 0x1 DUP3 AND PUSH1 0x0 DUP2 EQ PUSH2 0x126C JUMPI PUSH1 0x1 DUP2 EQ PUSH2 0x127E JUMPI PUSH2 0x12B1 JUMP JUMPDEST PUSH1 0xFF NOT DUP4 AND DUP7 MSTORE PUSH1 0x20 DUP7 ADD SWAP4 POP PUSH2 0x12B1 JUMP JUMPDEST PUSH2 0x1287 DUP6 PUSH2 0x1225 JUMP JUMPDEST PUSH1 0x0 JUMPDEST DUP4 DUP2 LT ISZERO PUSH2 0x12A9 JUMPI DUP2 SLOAD DUP2 DUP10 ADD MSTORE PUSH1 0x1 DUP3 ADD SWAP2 POP PUSH1 0x20 DUP2 ADD SWAP1 POP PUSH2 0x128A JUMP JUMPDEST DUP1 DUP9 ADD SWAP6 POP POP POP JUMPDEST POP POP POP SWAP3 SWAP2 POP POP JUMP JUMPDEST PUSH1 0x0 PUSH1 0x80 DUP3 ADD SWAP1 POP PUSH2 0x12CF PUSH1 0x0 DUP4 ADD DUP8 PUSH2 0x10AE JUMP JUMPDEST PUSH2 0x12DC PUSH1 0x20 DUP4 ADD DUP7 PUSH2 0x1084 JUMP JUMPDEST DUP2 DUP2 SUB PUSH1 0x40 DUP4 ADD MSTORE PUSH2 0x12EE DUP2 DUP6 PUSH2 0x123A JUMP JUMPDEST SWAP1 POP DUP2 DUP2 SUB PUSH1 0x60 DUP4 ADD MSTORE PUSH2 0x1302 DUP2 DUP5 PUSH2 0xFB1 JUMP JUMPDEST SWAP1 POP SWAP6 SWAP5 POP POP POP POP POP JUMP JUMPDEST PUSH1 0x0 PUSH1 0x80 DUP3 ADD SWAP1 POP PUSH2 0x1322 PUSH1 0x0 DUP4 ADD DUP8 PUSH2 0x10AE JUMP JUMPDEST PUSH2 0x132F PUSH1 0x20 DUP4 ADD DUP7 PUSH2 0x1084 JUMP JUMPDEST DUP2 DUP2 SUB PUSH1 0x40 DUP4 ADD MSTORE PUSH2 0x1341 DUP2 DUP6 PUSH2 0xFB1 JUMP JUMPDEST SWAP1 POP DUP2 DUP2 SUB PUSH1 0x60 DUP4 ADD MSTORE PUSH2 0x1355 DUP2 DUP5 PUSH2 0x123A JUMP JUMPDEST SWAP1 POP SWAP6 SWAP5 POP POP POP POP POP JUMP JUMPDEST PUSH1 0x0 PUSH1 0x80 DUP3 ADD SWAP1 POP PUSH2 0x1375 PUSH1 0x0 DUP4 ADD DUP8 PUSH2 0x10AE JUMP JUMPDEST PUSH2 0x1382 PUSH1 0x20 DUP4 ADD DUP7 PUSH2 0x1084 JUMP JUMPDEST DUP2 DUP2 SUB PUSH1 0x40 DUP4 ADD MSTORE PUSH2 0x1394 DUP2 DUP6 PUSH2 0xFB1 JUMP JUMPDEST SWAP1 POP DUP2 DUP2 SUB PUSH1 0x60 DUP4 ADD MSTORE PUSH2 0x13A8 DUP2 DUP5 PUSH2 0xFB1 JUMP JUMPDEST SWAP1 POP SWAP6 SWAP5 POP POP POP POP POP JUMP INVALID LOG2 PUSH5 0x6970667358 0x22 SLT KECCAK256 0x2F 0xBB PUSH18 0x9ADBE9EC16DA30D8B2FA10E1850CF7698C4B 0xE5 SUB SWAP15 SWAP2 ADDRESS SWAP5 0xD3 LOG4 0xAB 0xA5 BALANCE PUSH5 0x736F6C6343 STOP ADDMOD EXP STOP CALLER "
				},
				"gasEstimates": {
					"creation": {
						"codeDepositCost": "1019400",
						"executionCost": "1061",
						"totalCost": "1020461"
					},
					"external": {
						"createGravatar(string,string)": "infinite",
						"getGravatar(address)": "infinite",
						"gravatarToOwner(uint256)": "2906",
						"gravatars(uint256)": "infinite",
						"ownerToGravatar(address)": "2814",
						"setMythicalGravatar()": "infinite",
						"updateGravatarImage(string)": "infinite",
						"updateGravatarName(string)": "infinite"
					}
				},
				"methodIdentifiers": {
					"createGravatar(string,string)": "cdb3344a",
					"getGravatar(address)": "359c1f72",
					"gravatarToOwner(uint256)": "88d0d391",
					"gravatars(uint256)": "d5ce24ed",
					"ownerToGravatar(address)": "a5ac3634",
					"setMythicalGravatar()": "1d4f2c6d",
					"updateGravatarImage(string)": "0081d6e5",
					"updateGravatarName(string)": "b18588fb"
				}
			},
			"storageLayout": {
				"storage": [
					{
						"astId": 32,
						"contract": "contracts/Gravity.sol:GravatarRegistry",
						"label": "gravatars",
						"offset": 0,
						"slot": "0",
						"type": "t_array(t_struct(Gravatar)28_storage)dyn_storage"
					},
					{
						"astId": 36,
						"contract": "contracts/Gravity.sol:GravatarRegistry",
						"label": "gravatarToOwner",
						"offset": 0,
						"slot": "1",
						"type": "t_mapping(t_uint256,t_address)"
					},
					{
						"astId": 40,
						"contract": "contracts/Gravity.sol:GravatarRegistry",
						"label": "ownerToGravatar",
						"offset": 0,
						"slot": "2",
						"type": "t_mapping(t_address,t_uint256)"
					}
				],
				"types": {
					"t_address": {
						"encoding": "inplace",
						"label": "address",
						"numberOfBytes": "20"
					},
					"t_array(t_struct(Gravatar)28_storage)dyn_storage": {
						"base": "t_struct(Gravatar)28_storage",
						"encoding": "dynamic_array",
						"label": "struct GravatarRegistry.Gravatar[]",
						"numberOfBytes": "32"
					},
					"t_mapping(t_address,t_uint256)": {
						"encoding": "mapping",
						"key": "t_address",
						"label": "mapping(address => uint256)",
						"numberOfBytes": "32",
						"value": "t_uint256"
					},
					"t_mapping(t_uint256,t_address)": {
						"encoding": "mapping",
						"key": "t_uint256",
						"label": "mapping(uint256 => address)",
						"numberOfBytes": "32",
						"value": "t_address"
					},
					"t_string_storage": {
						"encoding": "bytes",
						"label": "string",
						"numberOfBytes": "32"
					},
					"t_struct(Gravatar)28_storage": {
						"encoding": "inplace",
						"label": "struct GravatarRegistry.Gravatar",
						"members": [
							{
								"astId": 23,
								"contract": "contracts/Gravity.sol:GravatarRegistry",
								"label": "owner",
								"offset": 0,
								"slot": "0",
								"type": "t_address"
							},
							{
								"astId": 25,
								"contract": "contracts/Gravity.sol:GravatarRegistry",
								"label": "displayName",
								"offset": 0,
								"slot": "1",
								"type": "t_string_storage"
							},
							{
								"astId": 27,
								"contract": "contracts/Gravity.sol:GravatarRegistry",
								"label": "imageUrl",
								"offset": 0,
								"slot": "2",
								"type": "t_string_storage"
							}
						],
						"numberOfBytes": "96"
					},
					"t_uint256": {
						"encoding": "inplace",
						"label": "uint256",
						"numberOfBytes": "32"
					}
				}
			},
			"userdoc": {
				"kind": "user",
				"methods": {},
				"version": 1
			}
		}
	}
}